{
  "_format": "hh-sol-artifact-1",
  "contractName": "OriginalTokenVault",
  "sourceName": "contracts/pegged/OriginalTokenVault.sol",
  "abi": [
    {
      "inputs": [
        {
          "internalType": "contract ISigsVerifier",
          "name": "_sigsVerifier",
          "type": "address"
        }
      ],
      "stateMutability": "nonpayable",
      "type": "constructor"
    },
    {
      "anonymous": false,
      "inputs": [
        {
          "indexed": false,
          "internalType": "uint256",
          "name": "period",
          "type": "uint256"
        }
      ],
      "name": "DelayPeriodUpdated",
      "type": "event"
    },
    {
      "anonymous": false,
      "inputs": [
        {
          "indexed": false,
          "internalType": "address",
          "name": "token",
          "type": "address"
        },
        {
          "indexed": false,
          "internalType": "uint256",
          "name": "threshold",
          "type": "uint256"
        }
      ],
      "name": "DelayThresholdUpdated",
      "type": "event"
    },
    {
      "anonymous": false,
      "inputs": [
        {
          "indexed": false,
          "internalType": "bytes32",
          "name": "id",
          "type": "bytes32"
        }
      ],
      "name": "DelayedTransferAdded",
      "type": "event"
    },
    {
      "anonymous": false,
      "inputs": [
        {
          "indexed": false,
          "internalType": "bytes32",
          "name": "id",
          "type": "bytes32"
        },
        {
          "indexed": false,
          "internalType": "address",
          "name": "receiver",
          "type": "address"
        },
        {
          "indexed": false,
          "internalType": "address",
          "name": "token",
          "type": "address"
        },
        {
          "indexed": false,
          "internalType": "uint256",
          "name": "amount",
          "type": "uint256"
        }
      ],
      "name": "DelayedTransferExecuted",
      "type": "event"
    },
    {
      "anonymous": false,
      "inputs": [
        {
          "indexed": false,
          "internalType": "bytes32",
          "name": "depositId",
          "type": "bytes32"
        },
        {
          "indexed": false,
          "internalType": "address",
          "name": "depositor",
          "type": "address"
        },
        {
          "indexed": false,
          "internalType": "address",
          "name": "token",
          "type": "address"
        },
        {
          "indexed": false,
          "internalType": "uint256",
          "name": "amount",
          "type": "uint256"
        },
        {
          "indexed": false,
          "internalType": "uint64",
          "name": "mintChainId",
          "type": "uint64"
        },
        {
          "indexed": false,
          "internalType": "address",
          "name": "mintAccount",
          "type": "address"
        }
      ],
      "name": "Deposited",
      "type": "event"
    },
    {
      "anonymous": false,
      "inputs": [
        {
          "indexed": false,
          "internalType": "uint256",
          "name": "length",
          "type": "uint256"
        }
      ],
      "name": "EpochLengthUpdated",
      "type": "event"
    },
    {
      "anonymous": false,
      "inputs": [
        {
          "indexed": false,
          "internalType": "address",
          "name": "token",
          "type": "address"
        },
        {
          "indexed": false,
          "internalType": "uint256",
          "name": "cap",
          "type": "uint256"
        }
      ],
      "name": "EpochVolumeUpdated",
      "type": "event"
    },
    {
      "anonymous": false,
      "inputs": [
        {
          "indexed": false,
          "internalType": "address",
          "name": "account",
          "type": "address"
        }
      ],
      "name": "GovernorAdded",
      "type": "event"
    },
    {
      "anonymous": false,
      "inputs": [
        {
          "indexed": false,
          "internalType": "address",
          "name": "account",
          "type": "address"
        }
      ],
      "name": "GovernorRemoved",
      "type": "event"
    },
    {
      "anonymous": false,
      "inputs": [
        {
          "indexed": false,
          "internalType": "address",
          "name": "token",
          "type": "address"
        },
        {
          "indexed": false,
          "internalType": "uint256",
          "name": "amount",
          "type": "uint256"
        }
      ],
      "name": "MaxDepositUpdated",
      "type": "event"
    },
    {
      "anonymous": false,
      "inputs": [
        {
          "indexed": false,
          "internalType": "address",
          "name": "token",
          "type": "address"
        },
        {
          "indexed": false,
          "internalType": "uint256",
          "name": "amount",
          "type": "uint256"
        }
      ],
      "name": "MinDepositUpdated",
      "type": "event"
    },
    {
      "anonymous": false,
      "inputs": [
        {
          "indexed": true,
          "internalType": "address",
          "name": "previousOwner",
          "type": "address"
        },
        {
          "indexed": true,
          "internalType": "address",
          "name": "newOwner",
          "type": "address"
        }
      ],
      "name": "OwnershipTransferred",
      "type": "event"
    },
    {
      "anonymous": false,
      "inputs": [
        {
          "indexed": false,
          "internalType": "address",
          "name": "account",
          "type": "address"
        }
      ],
      "name": "Paused",
      "type": "event"
    },
    {
      "anonymous": false,
      "inputs": [
        {
          "indexed": false,
          "internalType": "address",
          "name": "account",
          "type": "address"
        }
      ],
      "name": "PauserAdded",
      "type": "event"
    },
    {
      "anonymous": false,
      "inputs": [
        {
          "indexed": false,
          "internalType": "address",
          "name": "account",
          "type": "address"
        }
      ],
      "name": "PauserRemoved",
      "type": "event"
    },
    {
      "anonymous": false,
      "inputs": [
        {
          "indexed": false,
          "internalType": "address",
          "name": "account",
          "type": "address"
        }
      ],
      "name": "Unpaused",
      "type": "event"
    },
    {
      "anonymous": false,
      "inputs": [
        {
          "indexed": false,
          "internalType": "bytes32",
          "name": "withdrawId",
          "type": "bytes32"
        },
        {
          "indexed": false,
          "internalType": "address",
          "name": "receiver",
          "type": "address"
        },
        {
          "indexed": false,
          "internalType": "address",
          "name": "token",
          "type": "address"
        },
        {
          "indexed": false,
          "internalType": "uint256",
          "name": "amount",
          "type": "uint256"
        },
        {
          "indexed": false,
          "internalType": "uint64",
          "name": "refChainId",
          "type": "uint64"
        },
        {
          "indexed": false,
          "internalType": "bytes32",
          "name": "refId",
          "type": "bytes32"
        },
        {
          "indexed": false,
          "internalType": "address",
          "name": "burnAccount",
          "type": "address"
        }
      ],
      "name": "Withdrawn",
      "type": "event"
    },
    {
      "inputs": [
        {
          "internalType": "address",
          "name": "_account",
          "type": "address"
        }
      ],
      "name": "addGovernor",
      "outputs": [],
      "stateMutability": "nonpayable",
      "type": "function"
    },
    {
      "inputs": [
        {
          "internalType": "address",
          "name": "account",
          "type": "address"
        }
      ],
      "name": "addPauser",
      "outputs": [],
      "stateMutability": "nonpayable",
      "type": "function"
    },
    {
      "inputs": [],
      "name": "delayPeriod",
      "outputs": [
        {
          "internalType": "uint256",
          "name": "",
          "type": "uint256"
        }
      ],
      "stateMutability": "view",
      "type": "function"
    },
    {
      "inputs": [
        {
          "internalType": "address",
          "name": "",
          "type": "address"
        }
      ],
      "name": "delayThresholds",
      "outputs": [
        {
          "internalType": "uint256",
          "name": "",
          "type": "uint256"
        }
      ],
      "stateMutability": "view",
      "type": "function"
    },
    {
      "inputs": [
        {
          "internalType": "bytes32",
          "name": "",
          "type": "bytes32"
        }
      ],
      "name": "delayedTransfers",
      "outputs": [
        {
          "internalType": "address",
          "name": "receiver",
          "type": "address"
        },
        {
          "internalType": "address",
          "name": "token",
          "type": "address"
        },
        {
          "internalType": "uint256",
          "name": "amount",
          "type": "uint256"
        },
        {
          "internalType": "uint256",
          "name": "timestamp",
          "type": "uint256"
        }
      ],
      "stateMutability": "view",
      "type": "function"
    },
    {
      "inputs": [
        {
          "internalType": "address",
          "name": "_token",
          "type": "address"
        },
        {
          "internalType": "uint256",
          "name": "_amount",
          "type": "uint256"
        },
        {
          "internalType": "uint64",
          "name": "_mintChainId",
          "type": "uint64"
        },
        {
          "internalType": "address",
          "name": "_mintAccount",
          "type": "address"
        },
        {
          "internalType": "uint64",
          "name": "_nonce",
          "type": "uint64"
        }
      ],
      "name": "deposit",
      "outputs": [],
      "stateMutability": "nonpayable",
      "type": "function"
    },
    {
      "inputs": [],
      "name": "epochLength",
      "outputs": [
        {
          "internalType": "uint256",
          "name": "",
          "type": "uint256"
        }
      ],
      "stateMutability": "view",
      "type": "function"
    },
    {
      "inputs": [
        {
          "internalType": "address",
          "name": "",
          "type": "address"
        }
      ],
      "name": "epochVolumeCaps",
      "outputs": [
        {
          "internalType": "uint256",
          "name": "",
          "type": "uint256"
        }
      ],
      "stateMutability": "view",
      "type": "function"
    },
    {
      "inputs": [
        {
          "internalType": "address",
          "name": "",
          "type": "address"
        }
      ],
      "name": "epochVolumes",
      "outputs": [
        {
          "internalType": "uint256",
          "name": "",
          "type": "uint256"
        }
      ],
      "stateMutability": "view",
      "type": "function"
    },
    {
      "inputs": [
        {
          "internalType": "bytes32",
          "name": "id",
          "type": "bytes32"
        }
      ],
      "name": "executeDelayedTransfer",
      "outputs": [],
      "stateMutability": "nonpayable",
      "type": "function"
    },
    {
      "inputs": [
        {
          "internalType": "address",
          "name": "",
          "type": "address"
        }
      ],
      "name": "governors",
      "outputs": [
        {
          "internalType": "bool",
          "name": "",
          "type": "bool"
        }
      ],
      "stateMutability": "view",
      "type": "function"
    },
    {
      "inputs": [
        {
          "internalType": "address",
          "name": "_account",
          "type": "address"
        }
      ],
      "name": "isGovernor",
      "outputs": [
        {
          "internalType": "bool",
          "name": "",
          "type": "bool"
        }
      ],
      "stateMutability": "view",
      "type": "function"
    },
    {
      "inputs": [
        {
          "internalType": "address",
          "name": "account",
          "type": "address"
        }
      ],
      "name": "isPauser",
      "outputs": [
        {
          "internalType": "bool",
          "name": "",
          "type": "bool"
        }
      ],
      "stateMutability": "view",
      "type": "function"
    },
    {
      "inputs": [
        {
          "internalType": "address",
          "name": "",
          "type": "address"
        }
      ],
      "name": "lastOpTimestamps",
      "outputs": [
        {
          "internalType": "uint256",
          "name": "",
          "type": "uint256"
        }
      ],
      "stateMutability": "view",
      "type": "function"
    },
    {
      "inputs": [
        {
          "internalType": "address",
          "name": "",
          "type": "address"
        }
      ],
      "name": "maxDeposit",
      "outputs": [
        {
          "internalType": "uint256",
          "name": "",
          "type": "uint256"
        }
      ],
      "stateMutability": "view",
      "type": "function"
    },
    {
      "inputs": [
        {
          "internalType": "address",
          "name": "",
          "type": "address"
        }
      ],
      "name": "minDeposit",
      "outputs": [
        {
          "internalType": "uint256",
          "name": "",
          "type": "uint256"
        }
      ],
      "stateMutability": "view",
      "type": "function"
    },
    {
      "inputs": [],
      "name": "owner",
      "outputs": [
        {
          "internalType": "address",
          "name": "",
          "type": "address"
        }
      ],
      "stateMutability": "view",
      "type": "function"
    },
    {
      "inputs": [],
      "name": "pause",
      "outputs": [],
      "stateMutability": "nonpayable",
      "type": "function"
    },
    {
      "inputs": [],
      "name": "paused",
      "outputs": [
        {
          "internalType": "bool",
          "name": "",
          "type": "bool"
        }
      ],
      "stateMutability": "view",
      "type": "function"
    },
    {
      "inputs": [
        {
          "internalType": "address",
          "name": "",
          "type": "address"
        }
      ],
      "name": "pausers",
      "outputs": [
        {
          "internalType": "bool",
          "name": "",
          "type": "bool"
        }
      ],
      "stateMutability": "view",
      "type": "function"
    },
    {
      "inputs": [
        {
          "internalType": "bytes32",
          "name": "",
          "type": "bytes32"
        }
      ],
      "name": "records",
      "outputs": [
        {
          "internalType": "bool",
          "name": "",
          "type": "bool"
        }
      ],
      "stateMutability": "view",
      "type": "function"
    },
    {
      "inputs": [
        {
          "internalType": "address",
          "name": "_account",
          "type": "address"
        }
      ],
      "name": "removeGovernor",
      "outputs": [],
      "stateMutability": "nonpayable",
      "type": "function"
    },
    {
      "inputs": [
        {
          "internalType": "address",
          "name": "account",
          "type": "address"
        }
      ],
      "name": "removePauser",
      "outputs": [],
      "stateMutability": "nonpayable",
      "type": "function"
    },
    {
      "inputs": [],
      "name": "renounceGovernor",
      "outputs": [],
      "stateMutability": "nonpayable",
      "type": "function"
    },
    {
      "inputs": [],
      "name": "renounceOwnership",
      "outputs": [],
      "stateMutability": "nonpayable",
      "type": "function"
    },
    {
      "inputs": [],
      "name": "renouncePauser",
      "outputs": [],
      "stateMutability": "nonpayable",
      "type": "function"
    },
    {
      "inputs": [
        {
          "internalType": "uint256",
          "name": "_period",
          "type": "uint256"
        }
      ],
      "name": "setDelayPeriod",
      "outputs": [],
      "stateMutability": "nonpayable",
      "type": "function"
    },
    {
      "inputs": [
        {
          "internalType": "address[]",
          "name": "_tokens",
          "type": "address[]"
        },
        {
          "internalType": "uint256[]",
          "name": "_thresholds",
          "type": "uint256[]"
        }
      ],
      "name": "setDelayThresholds",
      "outputs": [],
      "stateMutability": "nonpayable",
      "type": "function"
    },
    {
      "inputs": [
        {
          "internalType": "uint256",
          "name": "_length",
          "type": "uint256"
        }
      ],
      "name": "setEpochLength",
      "outputs": [],
      "stateMutability": "nonpayable",
      "type": "function"
    },
    {
      "inputs": [
        {
          "internalType": "address[]",
          "name": "_tokens",
          "type": "address[]"
        },
        {
          "internalType": "uint256[]",
          "name": "_caps",
          "type": "uint256[]"
        }
      ],
      "name": "setEpochVolumeCaps",
      "outputs": [],
      "stateMutability": "nonpayable",
      "type": "function"
    },
    {
      "inputs": [
        {
          "internalType": "address[]",
          "name": "_tokens",
          "type": "address[]"
        },
        {
          "internalType": "uint256[]",
          "name": "_amounts",
          "type": "uint256[]"
        }
      ],
      "name": "setMaxDeposit",
      "outputs": [],
      "stateMutability": "nonpayable",
      "type": "function"
    },
    {
      "inputs": [
        {
          "internalType": "address[]",
          "name": "_tokens",
          "type": "address[]"
        },
        {
          "internalType": "uint256[]",
          "name": "_amounts",
          "type": "uint256[]"
        }
      ],
      "name": "setMinDeposit",
      "outputs": [],
      "stateMutability": "nonpayable",
      "type": "function"
    },
    {
      "inputs": [],
      "name": "sigsVerifier",
      "outputs": [
        {
          "internalType": "contract ISigsVerifier",
          "name": "",
          "type": "address"
        }
      ],
      "stateMutability": "view",
      "type": "function"
    },
    {
      "inputs": [
        {
          "internalType": "address",
          "name": "newOwner",
          "type": "address"
        }
      ],
      "name": "transferOwnership",
      "outputs": [],
      "stateMutability": "nonpayable",
      "type": "function"
    },
    {
      "inputs": [],
      "name": "unpause",
      "outputs": [],
      "stateMutability": "nonpayable",
      "type": "function"
    },
    {
      "inputs": [
        {
          "internalType": "bytes",
          "name": "_request",
          "type": "bytes"
        },
        {
          "internalType": "bytes[]",
          "name": "_sigs",
          "type": "bytes[]"
        },
        {
          "internalType": "address[]",
          "name": "_signers",
          "type": "address[]"
        },
        {
          "internalType": "uint256[]",
          "name": "_powers",
          "type": "uint256[]"
        }
      ],
      "name": "withdraw",
      "outputs": [],
      "stateMutability": "nonpayable",
      "type": "function"
    }
  ],
  "bytecode": "0x60a06040523480156200001157600080fd5b50604051620030e3380380620030e3833981016040819052620000349162000255565b6001600055620000443362000079565b6001805460ff60a01b191690556200005c33620000cb565b620000673362000195565b6001600160a01b031660805262000287565b600180546001600160a01b038381166001600160a01b0319831681179093556040519116919082907f8be0079c531659141344cd1fd0a4f28419497f9722a3daafe3b4186f6b6457e090600090a35050565b6001600160a01b03811660009081526002602052604090205460ff16156200013a5760405162461bcd60e51b815260206004820152601960248201527f4163636f756e7420697320616c7265616479207061757365720000000000000060448201526064015b60405180910390fd5b6001600160a01b038116600081815260026020908152604091829020805460ff1916600117905590519182527f6719d08c1888103bea251a4ed56406bd0c3e69723c8a1686e017e7bbe159b6f891015b60405180910390a150565b6001600160a01b03811660009081526003602052604090205460ff1615620002005760405162461bcd60e51b815260206004820152601b60248201527f4163636f756e7420697320616c726561647920676f7665726e6f720000000000604482015260640162000131565b6001600160a01b038116600081815260036020908152604091829020805460ff1916600117905590519182527fdc5a48d79e2e147530ff63ecdbed5a5a66adb9d5cf339384d5d076da197c40b591016200018a565b6000602082840312156200026857600080fd5b81516001600160a01b03811681146200028057600080fd5b9392505050565b608051612e39620002aa60003960008181610557015261145c0152612e396000f3fe608060405234801561001057600080fd5b506004361061025c5760003560e01c80636ef8d66d11610145578063b1c94d94116100bd578063e3eece261161008c578063eecdac8811610071578063eecdac88146105d0578063f2fde38b146105e3578063f8321383146105f657600080fd5b8063e3eece2614610581578063e43581b8146105a457600080fd5b8063b1c94d9414610529578063b5f2bc4714610532578063ccf2683b14610552578063e026049c1461057957600080fd5b80638456cb59116101145780639e25fc5c116100f95780639e25fc5c14610496578063a21a9280146104a9578063adc0d57f146104bc57600080fd5b80638456cb59146104695780638da5cb5b1461047157600080fd5b80636ef8d66d14610423578063715018a61461042b57806380f51c121461043357806382dc1ec41461045657600080fd5b806346fbf68e116101d857806357d775f8116101a75780635ec2fa261161018c5780635ec2fa26146103dd57806360216b00146103f05780636b2c0f551461041057600080fd5b806357d775f8146103c25780635c975abb146103cb57600080fd5b806346fbf68e1461035057806347b16c6c1461037c57806352532faa1461038f57806354eea796146103af57600080fd5b80633c29f8391161022f5780633d572107116102145780633d572107146103155780633f4ba83a14610328578063402d267d1461033057600080fd5b80633c29f839146102d45780633c4a25d01461030257600080fd5b806301e647251461026157806317bdbae51461029957806323463624146102ae578063303b6442146102c1575b600080fd5b61028461026f366004612851565b600b6020526000908152604090205460ff1681565b60405190151581526020015b60405180910390f35b6102ac6102a73660046128b6565b610616565b005b6102ac6102bc366004612956565b6107b9565b6102ac6102cf3660046128b6565b610ad1565b6102f46102e23660046129b4565b600c6020526000908152604090205481565b604051908152602001610290565b6102ac6103103660046129b4565b610c68565b6102ac610323366004612851565b610cce565b6102ac610d62565b6102f461033e3660046129b4565b600d6020526000908152604090205481565b61028461035e3660046129b4565b6001600160a01b031660009081526002602052604090205460ff1690565b6102ac61038a3660046128b6565b610dcb565b6102f461039d3660046129b4565b60096020526000908152604090205481565b6102ac6103bd366004612851565b610f62565b6102f460045481565b600154600160a01b900460ff16610284565b6102ac6103eb3660046128b6565b610fef565b6102f46103fe3660046129b4565b60056020526000908152604090205481565b6102ac61041e3660046129b4565b611186565b6102ac6111e9565b6102ac6111f2565b6102846104413660046129b4565b60026020526000908152604090205460ff1681565b6102ac6104643660046129b4565b611256565b6102ac6112b9565b6001546001600160a01b03165b6040516001600160a01b039091168152602001610290565b6102ac6104a4366004612851565b611320565b6102ac6104b73660046129cf565b61139f565b6104fe6104ca366004612851565b60086020526000908152604090208054600182015460028301546003909301546001600160a01b0392831693919092169184565b604080516001600160a01b039586168152949093166020850152918301526060820152608001610290565b6102f4600a5481565b6102f46105403660046129b4565b60066020526000908152604090205481565b61047e7f000000000000000000000000000000000000000000000000000000000000000081565b6102ac611765565b61028461058f3660046129b4565b60036020526000908152604090205460ff1681565b6102846105b23660046129b4565b6001600160a01b031660009081526003602052604090205460ff1690565b6102ac6105de3660046129b4565b61176e565b6102ac6105f13660046129b4565b6117d1565b6102f46106043660046129b4565b60076020526000908152604090205481565b3360009081526003602052604090205460ff166106735760405162461bcd60e51b815260206004820152601660248201527521b0b63632b91034b9903737ba1033b7bb32b93737b960511b60448201526064015b60405180910390fd5b8281146106b45760405162461bcd60e51b815260206004820152600f60248201526e0d8cadccee8d040dad2e6dac2e8c6d608b1b604482015260640161066a565b60005b838110156107b2578282828181106106d1576106d1612abe565b90506020020135600960008787858181106106ee576106ee612abe565b905060200201602081019061070391906129b4565b6001600160a01b031681526020810191909152604001600020557fceaad6533bfb481492fb3e08ef19297f46611b8fa9de5ef4cf8dc23a56ad09ce85858381811061075057610750612abe565b905060200201602081019061076591906129b4565b84848481811061077757610777612abe565b604080516001600160a01b0390951685526020918202939093013590840152500160405180910390a1806107aa81612aea565b9150506106b7565b5050505050565b6002600054141561080c5760405162461bcd60e51b815260206004820152601f60248201527f5265656e7472616e637947756172643a207265656e7472616e742063616c6c00604482015260640161066a565b6002600055600154600160a01b900460ff161561085e5760405162461bcd60e51b815260206004820152601060248201526f14185d5cd8589b194e881c185d5cd95960821b604482015260640161066a565b6001600160a01b0385166000908152600c602052604090205484116108c55760405162461bcd60e51b815260206004820152601060248201527f616d6f756e7420746f6f20736d616c6c00000000000000000000000000000000604482015260640161066a565b6001600160a01b0385166000908152600d6020526040902054158061090257506001600160a01b0385166000908152600d60205260409020548411155b61094e5760405162461bcd60e51b815260206004820152601060248201527f616d6f756e7420746f6f206c6172676500000000000000000000000000000000604482015260640161066a565b6040516bffffffffffffffffffffffff1933606090811b8216602084015287811b821660348401526048830187905277ffffffffffffffffffffffffffffffffffffffffffffffff1960c087811b821660688601529186901b909216607084015283811b8216608484015246901b16608c82015260009060940160408051601f1981840301815291815281516020928301206000818152600b90935291205490915060ff1615610a305760405162461bcd60e51b815260206004820152600d60248201526c7265636f72642065786973747360981b604482015260640161066a565b6000818152600b60205260409020805460ff19166001179055610a5e6001600160a01b0387163330886118b0565b604080518281523360208201526001600160a01b03888116828401526060820188905267ffffffffffffffff87166080830152851660a082015290517f15d2eeefbe4963b5b2178f239ddcc730dda55f1c23c22efb79ded0eb854ac7899181900360c00190a15050600160005550505050565b3360009081526003602052604090205460ff16610b295760405162461bcd60e51b815260206004820152601660248201527521b0b63632b91034b9903737ba1033b7bb32b93737b960511b604482015260640161066a565b828114610b6a5760405162461bcd60e51b815260206004820152600f60248201526e0d8cadccee8d040dad2e6dac2e8c6d608b1b604482015260640161066a565b60005b838110156107b257828282818110610b8757610b87612abe565b90506020020135600d6000878785818110610ba457610ba4612abe565b9050602002016020810190610bb991906129b4565b6001600160a01b031681526020810191909152604001600020557f0e5d348f9737ccc8b4cf0eea0ccf3670af071af8bea5d64664f10e700c08de72858583818110610c0657610c06612abe565b9050602002016020810190610c1b91906129b4565b848484818110610c2d57610c2d612abe565b604080516001600160a01b0390951685526020918202939093013590840152500160405180910390a180610c6081612aea565b915050610b6d565b6001546001600160a01b03163314610cc25760405162461bcd60e51b815260206004820181905260248201527f4f776e61626c653a2063616c6c6572206973206e6f7420746865206f776e6572604482015260640161066a565b610ccb8161194e565b50565b3360009081526003602052604090205460ff16610d265760405162461bcd60e51b815260206004820152601660248201527521b0b63632b91034b9903737ba1033b7bb32b93737b960511b604482015260640161066a565b600a8190556040518181527fc0a39f234199b125fb93713c4d067bdcebbf691087f87b79c0feb92b156ba8b6906020015b60405180910390a150565b3360009081526002602052604090205460ff16610dc15760405162461bcd60e51b815260206004820152601460248201527f43616c6c6572206973206e6f7420706175736572000000000000000000000000604482015260640161066a565b610dc9611a0b565b565b3360009081526003602052604090205460ff16610e235760405162461bcd60e51b815260206004820152601660248201527521b0b63632b91034b9903737ba1033b7bb32b93737b960511b604482015260640161066a565b828114610e645760405162461bcd60e51b815260206004820152600f60248201526e0d8cadccee8d040dad2e6dac2e8c6d608b1b604482015260640161066a565b60005b838110156107b257828282818110610e8157610e81612abe565b9050602002013560066000878785818110610e9e57610e9e612abe565b9050602002016020810190610eb391906129b4565b6001600160a01b031681526020810191909152604001600020557f608e49c22994f20b5d3496dca088b88dfd81b4a3e8cc3809ea1e10a320107e89858583818110610f0057610f00612abe565b9050602002016020810190610f1591906129b4565b848484818110610f2757610f27612abe565b604080516001600160a01b0390951685526020918202939093013590840152500160405180910390a180610f5a81612aea565b915050610e67565b3360009081526003602052604090205460ff16610fba5760405162461bcd60e51b815260206004820152601660248201527521b0b63632b91034b9903737ba1033b7bb32b93737b960511b604482015260640161066a565b60048190556040518181527f2664fec2ff76486ac58ed087310855b648b15b9d19f3de8529e95f7c46b7d6b390602001610d57565b3360009081526003602052604090205460ff166110475760405162461bcd60e51b815260206004820152601660248201527521b0b63632b91034b9903737ba1033b7bb32b93737b960511b604482015260640161066a565b8281146110885760405162461bcd60e51b815260206004820152600f60248201526e0d8cadccee8d040dad2e6dac2e8c6d608b1b604482015260640161066a565b60005b838110156107b2578282828181106110a5576110a5612abe565b90506020020135600c60008787858181106110c2576110c2612abe565b90506020020160208101906110d791906129b4565b6001600160a01b031681526020810191909152604001600020557f0f48d517989455cd80ed52427e80553e66f9b69fd5cee8e26bd1a1f9c364fba685858381811061112457611124612abe565b905060200201602081019061113991906129b4565b84848481811061114b5761114b612abe565b604080516001600160a01b0390951685526020918202939093013590840152500160405180910390a18061117e81612aea565b91505061108b565b6001546001600160a01b031633146111e05760405162461bcd60e51b815260206004820181905260248201527f4f776e61626c653a2063616c6c6572206973206e6f7420746865206f776e6572604482015260640161066a565b610ccb81611ab1565b610dc933611ab1565b6001546001600160a01b0316331461124c5760405162461bcd60e51b815260206004820181905260248201527f4f776e61626c653a2063616c6c6572206973206e6f7420746865206f776e6572604482015260640161066a565b610dc96000611b6a565b6001546001600160a01b031633146112b05760405162461bcd60e51b815260206004820181905260248201527f4f776e61626c653a2063616c6c6572206973206e6f7420746865206f776e6572604482015260640161066a565b610ccb81611bc9565b3360009081526002602052604090205460ff166113185760405162461bcd60e51b815260206004820152601460248201527f43616c6c6572206973206e6f7420706175736572000000000000000000000000604482015260640161066a565b610dc9611c86565b600154600160a01b900460ff161561136d5760405162461bcd60e51b815260206004820152601060248201526f14185d5cd8589b194e881c185d5cd95960821b604482015260640161066a565b600061137882611d0e565b80516040820151602083015192935061139b926001600160a01b03169190611ee0565b5050565b600154600160a01b900460ff16156113ec5760405162461bcd60e51b815260206004820152601060248201526f14185d5cd8589b194e881c185d5cd95960821b604482015260640161066a565b6000463060405160200161144292919091825260601b6bffffffffffffffffffffffff191660208201527f57697468647261770000000000000000000000000000000000000000000000006034820152603c0190565b6040516020818303038152906040528051906020012090507f00000000000000000000000000000000000000000000000000000000000000006001600160a01b031663682dbc22828b8b60405160200161149e93929190612b05565b6040516020818303038152906040528989898989896040518863ffffffff1660e01b81526004016114d59796959493929190612c36565b60006040518083038186803b1580156114ed57600080fd5b505afa158015611501573d6000803e3d6000fd5b5050505060006115468a8a8080601f016020809104026020016040519081016040528093929190818152602001838380828437600092019190915250611f1592505050565b6020818101518251604080850151606080870151608088015160a0890151855197841b6bffffffffffffffffffffffff19908116898b015296841b871660348901526048880194909452911b909316606885015260c09290921b77ffffffffffffffffffffffffffffffffffffffffffffffff1916607c8401526084808401929092528051808403909201825260a490920182528051908301206000818152600b9093529120549192509060ff16156116315760405162461bcd60e51b815260206004820152600d60248201526c7265636f72642065786973747360981b604482015260640161066a565b6000818152600b602052604090819020805460ff1916600117905582519083015161165c9190612077565b81516001600160a01b031660009081526009602052604090205480158015906116885750808360400151115b156116aa576116a58284602001518560000151866040015161218f565b6116cb565b6020830151604084015184516116cb926001600160a01b0390911691611ee0565b602080840151845160408087015160808089015160a0808b01516060808d015187518d81526001600160a01b039a8b169b81019b909b52978916968a01969096529488019390935267ffffffffffffffff16908601528401521660c08201527f296a629c5265cb4e5319803d016902eb70a9079b89655fe2b7737821ed88beeb9060e00160405180910390a1505050505050505050505050565b610dc9336122af565b6001546001600160a01b031633146117c85760405162461bcd60e51b815260206004820181905260248201527f4f776e61626c653a2063616c6c6572206973206e6f7420746865206f776e6572604482015260640161066a565b610ccb816122af565b6001546001600160a01b0316331461182b5760405162461bcd60e51b815260206004820181905260248201527f4f776e61626c653a2063616c6c6572206973206e6f7420746865206f776e6572604482015260640161066a565b6001600160a01b0381166118a75760405162461bcd60e51b815260206004820152602660248201527f4f776e61626c653a206e6577206f776e657220697320746865207a65726f206160448201527f6464726573730000000000000000000000000000000000000000000000000000606482015260840161066a565b610ccb81611b6a565b6040516001600160a01b03808516602483015283166044820152606481018290526119489085906323b872dd60e01b906084015b60408051601f198184030181529190526020810180517bffffffffffffffffffffffffffffffffffffffffffffffffffffffff167fffffffff0000000000000000000000000000000000000000000000000000000090931692909217909152612368565b50505050565b6001600160a01b03811660009081526003602052604090205460ff16156119b75760405162461bcd60e51b815260206004820152601b60248201527f4163636f756e7420697320616c726561647920676f7665726e6f720000000000604482015260640161066a565b6001600160a01b038116600081815260036020908152604091829020805460ff1916600117905590519182527fdc5a48d79e2e147530ff63ecdbed5a5a66adb9d5cf339384d5d076da197c40b59101610d57565b600154600160a01b900460ff16611a645760405162461bcd60e51b815260206004820152601460248201527f5061757361626c653a206e6f7420706175736564000000000000000000000000604482015260640161066a565b6001805460ff60a01b191690557f5db9ee0a495bf2e6ff9c91a7834c1ba4fdd244a5e8aa4e537bd38aeae4b073aa335b6040516001600160a01b03909116815260200160405180910390a1565b6001600160a01b03811660009081526002602052604090205460ff16611b195760405162461bcd60e51b815260206004820152601560248201527f4163636f756e74206973206e6f74207061757365720000000000000000000000604482015260640161066a565b6001600160a01b038116600081815260026020908152604091829020805460ff1916905590519182527fcd265ebaf09df2871cc7bd4133404a235ba12eff2041bb89d9c714a2621c7c7e9101610d57565b600180546001600160a01b0383811673ffffffffffffffffffffffffffffffffffffffff19831681179093556040519116919082907f8be0079c531659141344cd1fd0a4f28419497f9722a3daafe3b4186f6b6457e090600090a35050565b6001600160a01b03811660009081526002602052604090205460ff1615611c325760405162461bcd60e51b815260206004820152601960248201527f4163636f756e7420697320616c72656164792070617573657200000000000000604482015260640161066a565b6001600160a01b038116600081815260026020908152604091829020805460ff1916600117905590519182527f6719d08c1888103bea251a4ed56406bd0c3e69723c8a1686e017e7bbe159b6f89101610d57565b600154600160a01b900460ff1615611cd35760405162461bcd60e51b815260206004820152601060248201526f14185d5cd8589b194e881c185d5cd95960821b604482015260640161066a565b6001805460ff60a01b1916600160a01b1790557f62e78cea01bee320cd4e420270b5ea74000d11b0c9f74754ebdbfc544b05a258611a943390565b604080516080810182526000808252602082018190529181018290526060810191909152600082815260086020908152604091829020825160808101845281546001600160a01b0390811682526001830154169281019290925260028101549282019290925260039091015460608201819052611dcd5760405162461bcd60e51b815260206004820152601a60248201527f64656c61796564207472616e73666572206e6f74206578697374000000000000604482015260640161066a565b600a548160600151611ddf9190612d16565b4211611e2d5760405162461bcd60e51b815260206004820152601d60248201527f64656c61796564207472616e73666572207374696c6c206c6f636b6564000000604482015260640161066a565b6000838152600860209081526040808320805473ffffffffffffffffffffffffffffffffffffffff199081168255600182018054909116905560028101849055600301929092558251908301518383015192517f3b40e5089937425d14cdd96947e5661868357e224af59bd8b24a4b8a330d442693611ed293889390929091909384526001600160a01b03928316602085015291166040830152606082015260800190565b60405180910390a192915050565b6040516001600160a01b038316602482015260448101829052611f1090849063a9059cbb60e01b906064016118e4565b505050565b6040805160c08101825260008082526020808301829052828401829052606083018290526080830182905260a0830182905283518085019094528184528301849052909190805b6020830151518351101561206f57611f738361244d565b90925090508160011415611fa257611f92611f8d84612487565b612544565b6001600160a01b03168452611f5c565b8160021415611fca57611fb7611f8d84612487565b6001600160a01b03166020850152611f5c565b8160031415611fee57611fe4611fdf84612487565b612555565b6040850152611f5c565b816004141561201657612003611f8d84612487565b6001600160a01b03166060850152611f5c565b816005141561203c576120288361258c565b67ffffffffffffffff166080850152611f5c565b81600614156120605761205661205184612487565b61260e565b60a0850152611f5c565b61206a8382612626565b611f5c565b505050919050565b600454612082575050565b6001600160a01b038216600090815260066020526040902054806120a557505050565b6001600160a01b038316600090815260056020526040812054600454909142916120cf8184612d2e565b6120d99190612d50565b6001600160a01b03871660009081526007602052604090205490915081111561210457849250612111565b61210e8584612d16565b92505b838311156121615760405162461bcd60e51b815260206004820152601260248201527f766f6c756d652065786365656473206361700000000000000000000000000000604482015260640161066a565b506001600160a01b039094166000908152600560209081526040808320939093556007905220929092555050565b600084815260086020526040902060030154156121ee5760405162461bcd60e51b815260206004820152601f60248201527f64656c61796564207472616e7366657220616c72656164792065786973747300604482015260640161066a565b604080516080810182526001600160a01b0380861682528481166020808401918252838501868152426060860190815260008b81526008909352918690209451855490851673ffffffffffffffffffffffffffffffffffffffff1991821617865592516001860180549190951693169290921790925551600283015551600390910155517fcbcfffe5102114216a85d3aceb14ad4b81a3935b1b5c468fadf3889eb9c5dce6906122a19086815260200190565b60405180910390a150505050565b6001600160a01b03811660009081526003602052604090205460ff166123175760405162461bcd60e51b815260206004820152601760248201527f4163636f756e74206973206e6f7420676f7665726e6f72000000000000000000604482015260640161066a565b6001600160a01b038116600081815260036020908152604091829020805460ff1916905590519182527f1ebe834e73d60a5fec822c1e1727d34bc79f2ad977ed504581cc1822fe20fb5b9101610d57565b60006123bd826040518060400160405280602081526020017f5361666545524332303a206c6f772d6c6576656c2063616c6c206661696c6564815250856001600160a01b03166126989092919063ffffffff16565b805190915015611f1057808060200190518101906123db9190612d6f565b611f105760405162461bcd60e51b815260206004820152602a60248201527f5361666545524332303a204552433230206f7065726174696f6e20646964206e60448201527f6f74207375636365656400000000000000000000000000000000000000000000606482015260840161066a565b600080600061245b8461258c565b9050612468600882612d2e565b925080600716600581111561247f5761247f612d91565b915050915091565b606060006124948361258c565b905060008184600001516124a89190612d16565b90508360200151518111156124bc57600080fd5b8167ffffffffffffffff8111156124d5576124d5612da7565b6040519080825280601f01601f1916602001820160405280156124ff576020820181803683370190505b50602080860151865192955091818601919083010160005b85811015612539578181015183820152612532602082612d16565b9050612517565b505050935250919050565b600061254f826126b1565b92915050565b600060208251111561256657600080fd5b602082015190508151602061257b9190612dbd565b612586906008612d50565b1c919050565b602080820151825181019091015160009182805b600a8110156126085783811a91506125b9816007612d50565b82607f16901b8517945081608016600014156125f6576125da816001612d16565b865187906125e9908390612d16565b9052509395945050505050565b8061260081612aea565b9150506125a0565b50600080fd5b6000815160201461261e57600080fd5b506020015190565b600081600581111561263a5761263a612d91565b141561264957611f108261258c565b600281600581111561265d5761265d612d91565b141561025c57600061266e8361258c565b905080836000018181516126829190612d16565b90525060208301515183511115611f1057600080fd5b60606126a784846000856126d9565b90505b9392505050565b600081516014146126c157600080fd5b50602001516c01000000000000000000000000900490565b6060824710156127515760405162461bcd60e51b815260206004820152602660248201527f416464726573733a20696e73756666696369656e742062616c616e636520666f60448201527f722063616c6c0000000000000000000000000000000000000000000000000000606482015260840161066a565b843b61279f5760405162461bcd60e51b815260206004820152601d60248201527f416464726573733a2063616c6c20746f206e6f6e2d636f6e7472616374000000604482015260640161066a565b600080866001600160a01b031685876040516127bb9190612dd4565b60006040518083038185875af1925050503d80600081146127f8576040519150601f19603f3d011682016040523d82523d6000602084013e6127fd565b606091505b509150915061280d828286612818565b979650505050505050565b606083156128275750816126aa565b8251156128375782518084602001fd5b8160405162461bcd60e51b815260040161066a9190612df0565b60006020828403121561286357600080fd5b5035919050565b60008083601f84011261287c57600080fd5b50813567ffffffffffffffff81111561289457600080fd5b6020830191508360208260051b85010111156128af57600080fd5b9250929050565b600080600080604085870312156128cc57600080fd5b843567ffffffffffffffff808211156128e457600080fd5b6128f08883890161286a565b9096509450602087013591508082111561290957600080fd5b506129168782880161286a565b95989497509550505050565b80356001600160a01b038116811461293957600080fd5b919050565b803567ffffffffffffffff8116811461293957600080fd5b600080600080600060a0868803121561296e57600080fd5b61297786612922565b94506020860135935061298c6040870161293e565b925061299a60608701612922565b91506129a86080870161293e565b90509295509295909350565b6000602082840312156129c657600080fd5b6126aa82612922565b6000806000806000806000806080898b0312156129eb57600080fd5b883567ffffffffffffffff80821115612a0357600080fd5b818b0191508b601f830112612a1757600080fd5b813581811115612a2657600080fd5b8c6020828501011115612a3857600080fd5b60209283019a509850908a01359080821115612a5357600080fd5b612a5f8c838d0161286a565b909850965060408b0135915080821115612a7857600080fd5b612a848c838d0161286a565b909650945060608b0135915080821115612a9d57600080fd5b50612aaa8b828c0161286a565b999c989b5096995094979396929594505050565b634e487b7160e01b600052603260045260246000fd5b634e487b7160e01b600052601160045260246000fd5b6000600019821415612afe57612afe612ad4565b5060010190565b838152818360208301376000910160200190815292915050565b60005b83811015612b3a578181015183820152602001612b22565b838111156119485750506000910152565b60008151808452612b63816020860160208601612b1f565b601f01601f19169290920160200192915050565b81835281816020850137506000828201602090810191909152601f909101601f19169091010190565b8183526000602080850194508260005b85811015612bdc576001600160a01b03612bc983612922565b1687529582019590820190600101612bb0565b509495945050505050565b81835260007f07ffffffffffffffffffffffffffffffffffffffffffffffffffffffffffffff831115612c1957600080fd5b8260051b8083602087013760009401602001938452509192915050565b608081526000612c49608083018a612b4b565b82810360208401528088825260208201905060208960051b8301018a60005b8b811015612cdc57848303601f190184528135368e9003601e19018112612c8e57600080fd5b8d01803567ffffffffffffffff811115612ca757600080fd5b8036038f1315612cb657600080fd5b612cc4858260208501612b77565b60209687019690955093909301925050600101612c68565b50508481036040860152612cf181898b612ba0565b925050508281036060840152612d08818587612be7565b9a9950505050505050505050565b60008219821115612d2957612d29612ad4565b500190565b600082612d4b57634e487b7160e01b600052601260045260246000fd5b500490565b6000816000190483118215151615612d6a57612d6a612ad4565b500290565b600060208284031215612d8157600080fd5b815180151581146126aa57600080fd5b634e487b7160e01b600052602160045260246000fd5b634e487b7160e01b600052604160045260246000fd5b600082821015612dcf57612dcf612ad4565b500390565b60008251612de6818460208701612b1f565b9190910192915050565b6020815260006126aa6020830184612b4b56fea2646970667358221220458e638fe31efe10bc7c7ef67219757fee774883a75f8602ee9b5e8aa916dd7f64736f6c63430008090033",
  "linkReferences": {},
  "deployedLinkReferences": {}
}