{
  "_format": "hh-sol-artifact-1",
  "contractName": "Bridge",
  "sourceName": "contracts/Bridge.sol",
  "abi": [
    {
      "anonymous": false,
      "inputs": [
        {
          "indexed": false,
          "internalType": "uint256",
          "name": "length",
          "type": "uint256"
        }
      ],
      "name": "EpochLengthUpdated",
      "type": "event"
    },
    {
      "anonymous": false,
      "inputs": [
        {
          "indexed": false,
          "internalType": "address",
          "name": "token",
          "type": "address"
        },
        {
          "indexed": false,
          "internalType": "uint256",
          "name": "cap",
          "type": "uint256"
        }
      ],
      "name": "EpochVolumeUpdated",
      "type": "event"
    },
    {
      "anonymous": false,
      "inputs": [
        {
          "indexed": false,
          "internalType": "address",
          "name": "account",
          "type": "address"
        }
      ],
      "name": "GovernorAdded",
      "type": "event"
    },
    {
      "anonymous": false,
      "inputs": [
        {
          "indexed": false,
          "internalType": "address",
          "name": "account",
          "type": "address"
        }
      ],
      "name": "GovernorRemoved",
      "type": "event"
    },
    {
      "anonymous": false,
      "inputs": [
        {
          "indexed": false,
          "internalType": "uint64",
          "name": "seqnum",
          "type": "uint64"
        },
        {
          "indexed": false,
          "internalType": "address",
          "name": "provider",
          "type": "address"
        },
        {
          "indexed": false,
          "internalType": "address",
          "name": "token",
          "type": "address"
        },
        {
          "indexed": false,
          "internalType": "uint256",
          "name": "amount",
          "type": "uint256"
        }
      ],
      "name": "LiquidityAdded",
      "type": "event"
    },
    {
      "anonymous": false,
      "inputs": [
        {
          "indexed": false,
          "internalType": "address",
          "name": "token",
          "type": "address"
        },
        {
          "indexed": false,
          "internalType": "uint256",
          "name": "amount",
          "type": "uint256"
        }
      ],
      "name": "MaxSendUpdated",
      "type": "event"
    },
    {
      "anonymous": false,
      "inputs": [
        {
          "indexed": false,
          "internalType": "address",
          "name": "token",
          "type": "address"
        },
        {
          "indexed": false,
          "internalType": "uint256",
          "name": "amount",
          "type": "uint256"
        }
      ],
      "name": "MinSendUpdated",
      "type": "event"
    },
    {
      "anonymous": false,
      "inputs": [
        {
          "indexed": true,
          "internalType": "address",
          "name": "previousOwner",
          "type": "address"
        },
        {
          "indexed": true,
          "internalType": "address",
          "name": "newOwner",
          "type": "address"
        }
      ],
      "name": "OwnershipTransferred",
      "type": "event"
    },
    {
      "anonymous": false,
      "inputs": [
        {
          "indexed": false,
          "internalType": "address",
          "name": "account",
          "type": "address"
        }
      ],
      "name": "Paused",
      "type": "event"
    },
    {
      "anonymous": false,
      "inputs": [
        {
          "indexed": false,
          "internalType": "address",
          "name": "account",
          "type": "address"
        }
      ],
      "name": "PauserAdded",
      "type": "event"
    },
    {
      "anonymous": false,
      "inputs": [
        {
          "indexed": false,
          "internalType": "address",
          "name": "account",
          "type": "address"
        }
      ],
      "name": "PauserRemoved",
      "type": "event"
    },
    {
      "anonymous": false,
      "inputs": [
        {
          "indexed": false,
          "internalType": "bytes32",
          "name": "transferId",
          "type": "bytes32"
        },
        {
          "indexed": false,
          "internalType": "address",
          "name": "sender",
          "type": "address"
        },
        {
          "indexed": false,
          "internalType": "address",
          "name": "receiver",
          "type": "address"
        },
        {
          "indexed": false,
          "internalType": "address",
          "name": "token",
          "type": "address"
        },
        {
          "indexed": false,
          "internalType": "uint256",
          "name": "amount",
          "type": "uint256"
        },
        {
          "indexed": false,
          "internalType": "uint64",
          "name": "srcChainId",
          "type": "uint64"
        },
        {
          "indexed": false,
          "internalType": "bytes32",
          "name": "srcTransferId",
          "type": "bytes32"
        }
      ],
      "name": "Relay",
      "type": "event"
    },
    {
      "anonymous": false,
      "inputs": [
        {
          "indexed": false,
          "internalType": "uint256",
          "name": "resetTime",
          "type": "uint256"
        }
      ],
      "name": "ResetNotification",
      "type": "event"
    },
    {
      "anonymous": false,
      "inputs": [
        {
          "indexed": false,
          "internalType": "bytes32",
          "name": "transferId",
          "type": "bytes32"
        },
        {
          "indexed": false,
          "internalType": "address",
          "name": "sender",
          "type": "address"
        },
        {
          "indexed": false,
          "internalType": "address",
          "name": "receiver",
          "type": "address"
        },
        {
          "indexed": false,
          "internalType": "address",
          "name": "token",
          "type": "address"
        },
        {
          "indexed": false,
          "internalType": "uint256",
          "name": "amount",
          "type": "uint256"
        },
        {
          "indexed": false,
          "internalType": "uint64",
          "name": "dstChainId",
          "type": "uint64"
        },
        {
          "indexed": false,
          "internalType": "uint64",
          "name": "nonce",
          "type": "uint64"
        },
        {
          "indexed": false,
          "internalType": "uint32",
          "name": "maxSlippage",
          "type": "uint32"
        }
      ],
      "name": "Send",
      "type": "event"
    },
    {
      "anonymous": false,
      "inputs": [
        {
          "indexed": false,
          "internalType": "address[]",
          "name": "_signers",
          "type": "address[]"
        },
        {
          "indexed": false,
          "internalType": "uint256[]",
          "name": "_powers",
          "type": "uint256[]"
        }
      ],
      "name": "SignersUpdated",
      "type": "event"
    },
    {
      "anonymous": false,
      "inputs": [
        {
          "indexed": false,
          "internalType": "address",
          "name": "account",
          "type": "address"
        }
      ],
      "name": "Unpaused",
      "type": "event"
    },
    {
      "anonymous": false,
      "inputs": [
        {
          "indexed": false,
          "internalType": "bytes32",
          "name": "withdrawId",
          "type": "bytes32"
        },
        {
          "indexed": false,
          "internalType": "uint64",
          "name": "seqnum",
          "type": "uint64"
        },
        {
          "indexed": false,
          "internalType": "address",
          "name": "receiver",
          "type": "address"
        },
        {
          "indexed": false,
          "internalType": "address",
          "name": "token",
          "type": "address"
        },
        {
          "indexed": false,
          "internalType": "uint256",
          "name": "amount",
          "type": "uint256"
        },
        {
          "indexed": false,
          "internalType": "bytes32",
          "name": "refid",
          "type": "bytes32"
        }
      ],
      "name": "WithdrawDone",
      "type": "event"
    },
    {
      "inputs": [
        {
          "internalType": "address",
          "name": "_account",
          "type": "address"
        }
      ],
      "name": "addGovener",
      "outputs": [],
      "stateMutability": "nonpayable",
      "type": "function"
    },
    {
      "inputs": [
        {
          "internalType": "address",
          "name": "_token",
          "type": "address"
        },
        {
          "internalType": "uint256",
          "name": "_amount",
          "type": "uint256"
        }
      ],
      "name": "addLiquidity",
      "outputs": [],
      "stateMutability": "nonpayable",
      "type": "function"
    },
    {
      "inputs": [
        {
          "internalType": "address",
          "name": "account",
          "type": "address"
        }
      ],
      "name": "addPauser",
      "outputs": [],
      "stateMutability": "nonpayable",
      "type": "function"
    },
    {
      "inputs": [],
      "name": "addseq",
      "outputs": [
        {
          "internalType": "uint64",
          "name": "",
          "type": "uint64"
        }
      ],
      "stateMutability": "view",
      "type": "function"
    },
    {
      "inputs": [
        {
          "internalType": "address",
          "name": "",
          "type": "address"
        }
      ],
      "name": "epochVolumeCaps",
      "outputs": [
        {
          "internalType": "uint256",
          "name": "",
          "type": "uint256"
        }
      ],
      "stateMutability": "view",
      "type": "function"
    },
    {
      "inputs": [
        {
          "internalType": "address",
          "name": "",
          "type": "address"
        }
      ],
      "name": "epochVolumes",
      "outputs": [
        {
          "internalType": "uint256",
          "name": "",
          "type": "uint256"
        }
      ],
      "stateMutability": "view",
      "type": "function"
    },
    {
      "inputs": [
        {
          "internalType": "address",
          "name": "",
          "type": "address"
        }
      ],
      "name": "governors",
      "outputs": [
        {
          "internalType": "bool",
          "name": "",
          "type": "bool"
        }
      ],
      "stateMutability": "view",
      "type": "function"
    },
    {
      "inputs": [
        {
          "internalType": "uint256",
          "name": "period",
          "type": "uint256"
        }
      ],
      "name": "increaseNoticePeriod",
      "outputs": [],
      "stateMutability": "nonpayable",
      "type": "function"
    },
    {
      "inputs": [
        {
          "internalType": "address",
          "name": "_account",
          "type": "address"
        }
      ],
      "name": "isGovernor",
      "outputs": [
        {
          "internalType": "bool",
          "name": "",
          "type": "bool"
        }
      ],
      "stateMutability": "view",
      "type": "function"
    },
    {
      "inputs": [
        {
          "internalType": "address",
          "name": "account",
          "type": "address"
        }
      ],
      "name": "isPauser",
      "outputs": [
        {
          "internalType": "bool",
          "name": "",
          "type": "bool"
        }
      ],
      "stateMutability": "view",
      "type": "function"
    },
    {
      "inputs": [
        {
          "internalType": "address",
          "name": "",
          "type": "address"
        }
      ],
      "name": "lastOpBlks",
      "outputs": [
        {
          "internalType": "uint256",
          "name": "",
          "type": "uint256"
        }
      ],
      "stateMutability": "view",
      "type": "function"
    },
    {
      "inputs": [],
      "name": "mams",
      "outputs": [
        {
          "internalType": "uint32",
          "name": "",
          "type": "uint32"
        }
      ],
      "stateMutability": "view",
      "type": "function"
    },
    {
      "inputs": [
        {
          "internalType": "address",
          "name": "",
          "type": "address"
        }
      ],
      "name": "maxSend",
      "outputs": [
        {
          "internalType": "uint256",
          "name": "",
          "type": "uint256"
        }
      ],
      "stateMutability": "view",
      "type": "function"
    },
    {
      "inputs": [
        {
          "internalType": "address",
          "name": "",
          "type": "address"
        }
      ],
      "name": "minSend",
      "outputs": [
        {
          "internalType": "uint256",
          "name": "",
          "type": "uint256"
        }
      ],
      "stateMutability": "view",
      "type": "function"
    },
    {
      "inputs": [],
      "name": "nativeWrap",
      "outputs": [
        {
          "internalType": "address",
          "name": "",
          "type": "address"
        }
      ],
      "stateMutability": "view",
      "type": "function"
    },
    {
      "inputs": [],
      "name": "noticePeriod",
      "outputs": [
        {
          "internalType": "uint256",
          "name": "",
          "type": "uint256"
        }
      ],
      "stateMutability": "view",
      "type": "function"
    },
    {
      "inputs": [],
      "name": "notifyResetSigners",
      "outputs": [],
      "stateMutability": "nonpayable",
      "type": "function"
    },
    {
      "inputs": [],
      "name": "owner",
      "outputs": [
        {
          "internalType": "address",
          "name": "",
          "type": "address"
        }
      ],
      "stateMutability": "view",
      "type": "function"
    },
    {
      "inputs": [],
      "name": "pause",
      "outputs": [],
      "stateMutability": "nonpayable",
      "type": "function"
    },
    {
      "inputs": [],
      "name": "paused",
      "outputs": [
        {
          "internalType": "bool",
          "name": "",
          "type": "bool"
        }
      ],
      "stateMutability": "view",
      "type": "function"
    },
    {
      "inputs": [
        {
          "internalType": "address",
          "name": "",
          "type": "address"
        }
      ],
      "name": "pausers",
      "outputs": [
        {
          "internalType": "bool",
          "name": "",
          "type": "bool"
        }
      ],
      "stateMutability": "view",
      "type": "function"
    },
    {
      "inputs": [
        {
          "internalType": "bytes",
          "name": "_relayRequest",
          "type": "bytes"
        },
        {
          "internalType": "bytes[]",
          "name": "_sigs",
          "type": "bytes[]"
        },
        {
          "internalType": "address[]",
          "name": "_signers",
          "type": "address[]"
        },
        {
          "internalType": "uint256[]",
          "name": "_powers",
          "type": "uint256[]"
        }
      ],
      "name": "relay",
      "outputs": [],
      "stateMutability": "nonpayable",
      "type": "function"
    },
    {
      "inputs": [
        {
          "internalType": "address",
          "name": "_account",
          "type": "address"
        }
      ],
      "name": "removeGovener",
      "outputs": [],
      "stateMutability": "nonpayable",
      "type": "function"
    },
    {
      "inputs": [
        {
          "internalType": "address",
          "name": "account",
          "type": "address"
        }
      ],
      "name": "removePauser",
      "outputs": [],
      "stateMutability": "nonpayable",
      "type": "function"
    },
    {
      "inputs": [],
      "name": "renounceGovener",
      "outputs": [],
      "stateMutability": "nonpayable",
      "type": "function"
    },
    {
      "inputs": [],
      "name": "renounceOwnership",
      "outputs": [],
      "stateMutability": "nonpayable",
      "type": "function"
    },
    {
      "inputs": [],
      "name": "renouncePauser",
      "outputs": [],
      "stateMutability": "nonpayable",
      "type": "function"
    },
    {
      "inputs": [
        {
          "internalType": "address[]",
          "name": "_signers",
          "type": "address[]"
        },
        {
          "internalType": "uint256[]",
          "name": "_powers",
          "type": "uint256[]"
        }
      ],
      "name": "resetSigners",
      "outputs": [],
      "stateMutability": "nonpayable",
      "type": "function"
    },
    {
      "inputs": [],
      "name": "resetTime",
      "outputs": [
        {
          "internalType": "uint256",
          "name": "",
          "type": "uint256"
        }
      ],
      "stateMutability": "view",
      "type": "function"
    },
    {
      "inputs": [
        {
          "internalType": "address",
          "name": "_receiver",
          "type": "address"
        },
        {
          "internalType": "address",
          "name": "_token",
          "type": "address"
        },
        {
          "internalType": "uint256",
          "name": "_amount",
          "type": "uint256"
        },
        {
          "internalType": "uint64",
          "name": "_dstChainId",
          "type": "uint64"
        },
        {
          "internalType": "uint64",
          "name": "_nonce",
          "type": "uint64"
        },
        {
          "internalType": "uint32",
          "name": "_maxSlippage",
          "type": "uint32"
        }
      ],
      "name": "send",
      "outputs": [],
      "stateMutability": "nonpayable",
      "type": "function"
    },
    {
      "inputs": [
        {
          "internalType": "uint256",
          "name": "_length",
          "type": "uint256"
        }
      ],
      "name": "setEpochLength",
      "outputs": [],
      "stateMutability": "nonpayable",
      "type": "function"
    },
    {
      "inputs": [
        {
          "internalType": "address[]",
          "name": "_tokens",
          "type": "address[]"
        },
        {
          "internalType": "uint256[]",
          "name": "_caps",
          "type": "uint256[]"
        }
      ],
      "name": "setEpochVolumeCaps",
      "outputs": [],
      "stateMutability": "nonpayable",
      "type": "function"
    },
    {
      "inputs": [
        {
          "internalType": "address[]",
          "name": "_tokens",
          "type": "address[]"
        },
        {
          "internalType": "uint256[]",
          "name": "_amounts",
          "type": "uint256[]"
        }
      ],
      "name": "setMaxSend",
      "outputs": [],
      "stateMutability": "nonpayable",
      "type": "function"
    },
    {
      "inputs": [
        {
          "internalType": "address[]",
          "name": "_tokens",
          "type": "address[]"
        },
        {
          "internalType": "uint256[]",
          "name": "_amounts",
          "type": "uint256[]"
        }
      ],
      "name": "setMinSend",
      "outputs": [],
      "stateMutability": "nonpayable",
      "type": "function"
    },
    {
      "inputs": [
        {
          "internalType": "uint32",
          "name": "_minslip",
          "type": "uint32"
        }
      ],
      "name": "setMinSlippage",
      "outputs": [],
      "stateMutability": "nonpayable",
      "type": "function"
    },
    {
      "inputs": [
        {
          "internalType": "address",
          "name": "_weth",
          "type": "address"
        }
      ],
      "name": "setWrap",
      "outputs": [],
      "stateMutability": "nonpayable",
      "type": "function"
    },
    {
      "inputs": [],
      "name": "ssHash",
      "outputs": [
        {
          "internalType": "bytes32",
          "name": "",
          "type": "bytes32"
        }
      ],
      "stateMutability": "view",
      "type": "function"
    },
    {
      "inputs": [
        {
          "internalType": "address",
          "name": "newOwner",
          "type": "address"
        }
      ],
      "name": "transferOwnership",
      "outputs": [],
      "stateMutability": "nonpayable",
      "type": "function"
    },
    {
      "inputs": [
        {
          "internalType": "bytes32",
          "name": "",
          "type": "bytes32"
        }
      ],
      "name": "transfers",
      "outputs": [
        {
          "internalType": "bool",
          "name": "",
          "type": "bool"
        }
      ],
      "stateMutability": "view",
      "type": "function"
    },
    {
      "inputs": [],
      "name": "unpause",
      "outputs": [],
      "stateMutability": "nonpayable",
      "type": "function"
    },
    {
      "inputs": [
        {
          "internalType": "address[]",
          "name": "_newSigners",
          "type": "address[]"
        },
        {
          "internalType": "uint256[]",
          "name": "_newPowers",
          "type": "uint256[]"
        },
        {
          "internalType": "bytes[]",
          "name": "_sigs",
          "type": "bytes[]"
        },
        {
          "internalType": "address[]",
          "name": "_curSigners",
          "type": "address[]"
        },
        {
          "internalType": "uint256[]",
          "name": "_curPowers",
          "type": "uint256[]"
        }
      ],
      "name": "updateSigners",
      "outputs": [],
      "stateMutability": "nonpayable",
      "type": "function"
    },
    {
      "inputs": [
        {
          "internalType": "bytes",
          "name": "_msg",
          "type": "bytes"
        },
        {
          "internalType": "bytes[]",
          "name": "_sigs",
          "type": "bytes[]"
        },
        {
          "internalType": "address[]",
          "name": "_signers",
          "type": "address[]"
        },
        {
          "internalType": "uint256[]",
          "name": "_powers",
          "type": "uint256[]"
        }
      ],
      "name": "verifySigs",
      "outputs": [],
      "stateMutability": "view",
      "type": "function"
    },
    {
      "inputs": [
        {
          "internalType": "bytes",
          "name": "_wdmsg",
          "type": "bytes"
        },
        {
          "internalType": "bytes[]",
          "name": "_sigs",
          "type": "bytes[]"
        },
        {
          "internalType": "address[]",
          "name": "_signers",
          "type": "address[]"
        },
        {
          "internalType": "uint256[]",
          "name": "_powers",
          "type": "uint256[]"
        }
      ],
      "name": "withdraw",
      "outputs": [],
      "stateMutability": "nonpayable",
      "type": "function"
    },
    {
      "inputs": [
        {
          "internalType": "bytes32",
          "name": "",
          "type": "bytes32"
        }
      ],
      "name": "withdraws",
      "outputs": [
        {
          "internalType": "bool",
          "name": "",
          "type": "bool"
        }
      ],
      "stateMutability": "view",
      "type": "function"
    },
    {
      "stateMutability": "payable",
      "type": "receive"
    }
  ],
  "bytecode": "0x60806040523480156200001157600080fd5b506200001d3362000048565b60016004556005805460ff19169055620000373362000098565b620000423362000162565b62000222565b600080546001600160a01b038381166001600160a01b0319831681178455604051919092169283917f8be0079c531659141344cd1fd0a4f28419497f9722a3daafe3b4186f6b6457e09190a35050565b6001600160a01b03811660009081526006602052604090205460ff1615620001075760405162461bcd60e51b815260206004820152601960248201527f4163636f756e7420697320616c7265616479207061757365720000000000000060448201526064015b60405180910390fd5b6001600160a01b038116600081815260066020908152604091829020805460ff1916600117905590519182527f6719d08c1888103bea251a4ed56406bd0c3e69723c8a1686e017e7bbe159b6f891015b60405180910390a150565b6001600160a01b0381166000908152600d602052604090205460ff1615620001cd5760405162461bcd60e51b815260206004820152601b60248201527f4163636f756e7420697320616c726561647920676f7665726e6f7200000000006044820152606401620000fe565b6001600160a01b0381166000818152600d6020908152604091829020805460ff1916600117905590519182527fdc5a48d79e2e147530ff63ecdbed5a5a66adb9d5cf339384d5d076da197c40b5910162000157565b613fbf80620002326000396000f3fe6080604052600436106102eb5760003560e01c806380f51c1211610184578063a7bdf45a116100d6578063e3eece261161008a578063f20c922a11610064578063f20c922a146108c4578063f2fde38b146108e4578063f8b30d7d1461090457600080fd5b8063e3eece2614610846578063e43581b814610876578063edd75e20146108af57600080fd5b8063cdd1b25d116100bb578063cdd1b25d146107e0578063d0790da914610800578063e09ab4281461081657600080fd5b8063a7bdf45a14610793578063b5f2bc47146107b357600080fd5b80638d8afa17116101385780639ff9001a116101125780639ff9001a14610733578063a21a928014610753578063a5977fbb1461077357600080fd5b80638d8afa17146106df5780638da5cb5b146106ff5780639b14d4c61461071d57600080fd5b80638456cb59116101695780638456cb5914610670578063878fe1ce1461068557806389e39127146106a557600080fd5b806380f51c121461062057806382dc1ec41461065057600080fd5b8063566887001161023d578063682dbc22116101f1578063715018a6116101cb578063715018a6146105b957806372a5fe28146105ce5780637d5a232f1461060057600080fd5b8063682dbc22146105645780636b2c0f55146105845780636ef8d66d146105a457600080fd5b806360216b001161022257806360216b00146104f4578063618ee0551461052157806365a114f11461054e57600080fd5b806356688700146104bc5780635c975abb146104dc57600080fd5b80633f4ba83a1161029f57806346fbf68e1161027957806346fbf68e1461044357806347b16c6c1461047c57806354eea7961461049c57600080fd5b80633f4ba83a146103ce57806344a848af146103e3578063457bfa2f1461040357600080fd5b806325c38b9f116102d057806325c38b9f146103395780632968900b1461034e5780633c64f04b1461038e57600080fd5b806308992741146102f75780631b24e7d01461031957600080fd5b366102f257005b600080fd5b34801561030357600080fd5b506103176103123660046137e8565b610931565b005b34801561032557600080fd5b5061031761033436600461386d565b610ad4565b34801561034557600080fd5b50610317610b48565b34801561035a57600080fd5b5061037b61036936600461389f565b600c6020526000908152604090205481565b6040519081526020015b60405180910390f35b34801561039a57600080fd5b506103be6103a93660046138ba565b600e6020526000908152604090205460ff1681565b6040519015158152602001610385565b3480156103da57600080fd5b50610317610bd8565b3480156103ef57600080fd5b506103176103fe36600461389f565b610c41565b34801561040f57600080fd5b5060115461042b9064010000000090046001600160a01b031681565b6040516001600160a01b039091168152602001610385565b34801561044f57600080fd5b506103be61045e36600461389f565b6001600160a01b031660009081526006602052604090205460ff1690565b34801561048857600080fd5b506103176104973660046137e8565b610c95565b3480156104a857600080fd5b506103176104b73660046138ba565b610e2c565b3480156104c857600080fd5b506103176104d73660046138d3565b610ec0565b3480156104e857600080fd5b5060055460ff166103be565b34801561050057600080fd5b5061037b61050f36600461389f565b600a6020526000908152604090205481565b34801561052d57600080fd5b5061037b61053c36600461389f565b60106020526000908152604090205481565b34801561055a57600080fd5b5061037b60025481565b34801561057057600080fd5b5061031761057f366004613913565b611028565b34801561059057600080fd5b5061031761059f36600461389f565b611114565b3480156105b057600080fd5b50610317611165565b3480156105c557600080fd5b5061031761116e565b3480156105da57600080fd5b506011546105eb9063ffffffff1681565b60405163ffffffff9091168152602001610385565b34801561060c57600080fd5b5061031761061b366004613a41565b6111c0565b34801561062c57600080fd5b506103be61063b36600461389f565b60066020526000908152604090205460ff1681565b34801561065c57600080fd5b5061031761066b36600461389f565b61120c565b34801561067c57600080fd5b5061031761125d565b34801561069157600080fd5b506103176106a03660046137e8565b6112c4565b3480156106b157600080fd5b506007546106c69067ffffffffffffffff1681565b60405167ffffffffffffffff9091168152602001610385565b3480156106eb57600080fd5b506103176106fa36600461389f565b61145b565b34801561070b57600080fd5b506000546001600160a01b031661042b565b34801561072957600080fd5b5061037b60035481565b34801561073f57600080fd5b5061031761074e36600461389f565b6114ac565b34801561075f57600080fd5b5061031761076e366004613b32565b611536565b34801561077f57600080fd5b5061031761078e366004613c39565b61183b565b34801561079f57600080fd5b506103176107ae3660046137e8565b611bab565b3480156107bf57600080fd5b5061037b6107ce36600461389f565b600b6020526000908152604090205481565b3480156107ec57600080fd5b506103176107fb366004613b32565b611c5c565b34801561080c57600080fd5b5061037b60015481565b34801561082257600080fd5b506103be6108313660046138ba565b60086020526000908152604090205460ff1681565b34801561085257600080fd5b506103be61086136600461389f565b600d6020526000908152604090205460ff1681565b34801561088257600080fd5b506103be61089136600461389f565b6001600160a01b03166000908152600d602052604090205460ff1690565b3480156108bb57600080fd5b506103176120a0565b3480156108d057600080fd5b506103176108df3660046138ba565b6120a9565b3480156108f057600080fd5b506103176108ff36600461389f565b612153565b34801561091057600080fd5b5061037b61091f36600461389f565b600f6020526000908152604090205481565b336000908152600d602052604090205460ff1661098e5760405162461bcd60e51b815260206004820152601660248201527521b0b63632b91034b9903737ba1033b7bb32b93737b960511b60448201526064015b60405180910390fd5b8281146109cf5760405162461bcd60e51b815260206004820152600f60248201526e0d8cadccee8d040dad2e6dac2e8c6d608b1b6044820152606401610985565b60005b83811015610acd578282828181106109ec576109ec613ca6565b90506020020135600f6000878785818110610a0957610a09613ca6565b9050602002016020810190610a1e919061389f565b6001600160a01b031681526020810191909152604001600020557f8b59d386e660418a48d742213ad5ce7c4dd51ae81f30e4e2c387f17d907010c9858583818110610a6b57610a6b613ca6565b9050602002016020810190610a80919061389f565b848484818110610a9257610a92613ca6565b604080516001600160a01b0390951685526020918202939093013590840152500160405180910390a180610ac581613cd2565b9150506109d2565b5050505050565b336000908152600d602052604090205460ff16610b2c5760405162461bcd60e51b815260206004820152601660248201527521b0b63632b91034b9903737ba1033b7bb32b93737b960511b6044820152606401610985565b6011805463ffffffff191663ffffffff92909216919091179055565b6000546001600160a01b03163314610b905760405162461bcd60e51b81526020600482018190526024820152600080516020613f6a8339815191526044820152606401610985565b600354610b9d9042613ced565b60028190556040519081527f68e825132f7d4bc837dea2d64ac9fc19912bf0224b67f9317d8f1a917f5304a1906020015b60405180910390a1565b3360009081526006602052604090205460ff16610c375760405162461bcd60e51b815260206004820152601460248201527f43616c6c6572206973206e6f74207061757365720000000000000000000000006044820152606401610985565b610c3f612220565b565b6000546001600160a01b03163314610c895760405162461bcd60e51b81526020600482018190526024820152600080516020613f6a8339815191526044820152606401610985565b610c92816122b7565b50565b336000908152600d602052604090205460ff16610ced5760405162461bcd60e51b815260206004820152601660248201527521b0b63632b91034b9903737ba1033b7bb32b93737b960511b6044820152606401610985565b828114610d2e5760405162461bcd60e51b815260206004820152600f60248201526e0d8cadccee8d040dad2e6dac2e8c6d608b1b6044820152606401610985565b60005b83811015610acd57828282818110610d4b57610d4b613ca6565b90506020020135600b6000878785818110610d6857610d68613ca6565b9050602002016020810190610d7d919061389f565b6001600160a01b031681526020810191909152604001600020557f608e49c22994f20b5d3496dca088b88dfd81b4a3e8cc3809ea1e10a320107e89858583818110610dca57610dca613ca6565b9050602002016020810190610ddf919061389f565b848484818110610df157610df1613ca6565b604080516001600160a01b0390951685526020918202939093013590840152500160405180910390a180610e2481613cd2565b915050610d31565b336000908152600d602052604090205460ff16610e845760405162461bcd60e51b815260206004820152601660248201527521b0b63632b91034b9903737ba1033b7bb32b93737b960511b6044820152606401610985565b60098190556040518181527f2664fec2ff76486ac58ed087310855b648b15b9d19f3de8529e95f7c46b7d6b3906020015b60405180910390a150565b60026004541415610f135760405162461bcd60e51b815260206004820152601f60248201527f5265656e7472616e637947756172643a207265656e7472616e742063616c6c006044820152606401610985565b600260045560055460ff1615610f5e5760405162461bcd60e51b815260206004820152601060248201526f14185d5cd8589b194e881c185d5cd95960821b6044820152606401610985565b6007805460019190600090610f7e90849067ffffffffffffffff16613d05565b92506101000a81548167ffffffffffffffff021916908367ffffffffffffffff160217905550610fc4333083856001600160a01b0316612370909392919063ffffffff16565b6007546040805167ffffffffffffffff90921682523360208301526001600160a01b0384168282015260608201839052517fd5d28426c3248963b1719df49aa4c665120372e02c8249bbea03d019c39ce7649181900360800190a150506001600455565b6000848484846040516020016110419493929190613d31565b60405160208183030381529060405280519060200120905080600154146110aa5760405162461bcd60e51b815260206004820152601860248201527f4d69736d617463682063757272656e74207369676e65727300000000000000006044820152606401610985565b87516020808a0191909120604080517f19457468657265756d205369676e6564204d6573736167653a0a33320000000081850152603c8082019390935281518082039093018352605c019052805191012061110a90888888888888612408565b5050505050505050565b6000546001600160a01b0316331461115c5760405162461bcd60e51b81526020600482018190526024820152600080516020613f6a8339815191526044820152606401610985565b610c928161273e565b610c3f3361273e565b6000546001600160a01b031633146111b65760405162461bcd60e51b81526020600482018190526024820152600080516020613f6a8339815191526044820152606401610985565b610c3f60006127f7565b6111f48a8a8a8a6040516020016111da9493929190613d31565b604051602081830303815290604052878787878787611028565b6112008a8a8a8a61285f565b50505050505050505050565b6000546001600160a01b031633146112545760405162461bcd60e51b81526020600482018190526024820152600080516020613f6a8339815191526044820152606401610985565b610c9281612a09565b3360009081526006602052604090205460ff166112bc5760405162461bcd60e51b815260206004820152601460248201527f43616c6c6572206973206e6f74207061757365720000000000000000000000006044820152606401610985565b610c3f612ac6565b336000908152600d602052604090205460ff1661131c5760405162461bcd60e51b815260206004820152601660248201527521b0b63632b91034b9903737ba1033b7bb32b93737b960511b6044820152606401610985565b82811461135d5760405162461bcd60e51b815260206004820152600f60248201526e0d8cadccee8d040dad2e6dac2e8c6d608b1b6044820152606401610985565b60005b83811015610acd5782828281811061137a5761137a613ca6565b905060200201356010600087878581811061139757611397613ca6565b90506020020160208101906113ac919061389f565b6001600160a01b031681526020810191909152604001600020557f4f12d1a5bfb3ccd3719255d4d299d808d50cdca9a0a5c2b3a5aaa7edde73052c8585838181106113f9576113f9613ca6565b905060200201602081019061140e919061389f565b84848481811061142057611420613ca6565b604080516001600160a01b0390951685526020918202939093013590840152500160405180910390a18061145381613cd2565b915050611360565b6000546001600160a01b031633146114a35760405162461bcd60e51b81526020600482018190526024820152600080516020613f6a8339815191526044820152606401610985565b610c9281612b41565b6000546001600160a01b031633146114f45760405162461bcd60e51b81526020600482018190526024820152600080516020613f6a8339815191526044820152606401610985565b601180546001600160a01b03909216640100000000027fffffffffffffffff0000000000000000000000000000000000000000ffffffff909216919091179055565b60055460ff161561157c5760405162461bcd60e51b815260206004820152601060248201526f14185d5cd8589b194e881c185d5cd95960821b6044820152606401610985565b6115c388888080601f0160208091040260200160405190810160405280939291908181526020018383808284376000920191909152508a9250899150889050878787611028565b600061160489898080601f016020809104026020016040519081016040528093929190818152602001838380828437600092019190915250612bfe92505050565b805190915067ffffffffffffffff1646146116615760405162461bcd60e51b815260206004820152601460248201527f64737420636861696e4964206d69736d617463680000000000000000000000006044820152606401610985565b80516020808301516040808501516060860151608087015192516000966116d496909594910160c095861b6001600160c01b031990811682529490951b9093166008850152606091821b6bffffffffffffffffffffffff199081166010860152911b166024830152603882015260580190565b60408051601f1981840301815291815281516020928301206000818152600890935291205490915060ff161561174c5760405162461bcd60e51b815260206004820152601a60248201527f776974686472617720616c7265616479207375636365656465640000000000006044820152606401610985565b6000818152600860205260409020805460ff19166001179055606082015160808301516117799190612d5e565b6117a38260400151836080015184606001516001600160a01b0316612e769092919063ffffffff16565b7f48a1ab26f3aa7b62bb6b6e8eed182f292b84eb7b006c0254386b268af20774be8183602001518460400151856060015186608001518760a001516040516118279695949392919095865267ffffffffffffffff9490941660208601526001600160a01b03928316604086015291166060840152608083015260a082015260c00190565b60405180910390a150505050505050505050565b6002600454141561188e5760405162461bcd60e51b815260206004820152601f60248201527f5265656e7472616e637947756172643a207265656e7472616e742063616c6c006044820152606401610985565b600260045560055460ff16156118d95760405162461bcd60e51b815260206004820152601060248201526f14185d5cd8589b194e881c185d5cd95960821b6044820152606401610985565b6001600160a01b0385166000908152600f602052604090205484116119405760405162461bcd60e51b815260206004820152601060248201527f616d6f756e7420746f6f20736d616c6c000000000000000000000000000000006044820152606401610985565b6001600160a01b038516600090815260106020526040902054158061197d57506001600160a01b0385166000908152601060205260409020548411155b6119c95760405162461bcd60e51b815260206004820152601060248201527f616d6f756e7420746f6f206c61726765000000000000000000000000000000006044820152606401610985565b60115463ffffffff90811690821611611a245760405162461bcd60e51b815260206004820152601660248201527f6d617820736c69707061676520746f6f20736d616c6c000000000000000000006044820152606401610985565b6040516bffffffffffffffffffffffff1933606090811b8216602084015288811b8216603484015287901b166048820152605c81018590526001600160c01b031960c085811b8216607c84015284811b8216608484015246901b16608c82015260009060940160408051601f1981840301815291815281516020928301206000818152600e90935291205490915060ff1615611af45760405162461bcd60e51b815260206004820152600f60248201526e7472616e736665722065786973747360881b6044820152606401610985565b6000818152600e60205260409020805460ff19166001179055611b226001600160a01b038716333088612370565b604080518281523360208201526001600160a01b0389811682840152881660608201526080810187905267ffffffffffffffff86811660a0830152851660c082015263ffffffff841660e082015290517f89d8051e597ab4178a863a5190407b98abfeff406aa8db90c59af76612e58f01918190036101000190a1505060016004555050505050565b6000546001600160a01b03163314611bf35760405162461bcd60e51b81526020600482018190526024820152600080516020613f6a8339815191526044820152606401610985565b6002544211611c445760405162461bcd60e51b815260206004820152601460248201527f6e6f742072656163682072657365742074696d650000000000000000000000006044820152606401610985565b600019600255611c568484848461285f565b50505050565b60055460ff1615611ca25760405162461bcd60e51b815260206004820152601060248201526f14185d5cd8589b194e881c185d5cd95960821b6044820152606401610985565b611ce988888080601f0160208091040260200160405190810160405280939291908181526020018383808284376000920191909152508a9250899150889050878787611028565b6000611d2a89898080601f016020809104026020016040519081016040528093929190818152602001838380828437600092019190915250612eab92505050565b9050468160a0015167ffffffffffffffff1614611d895760405162461bcd60e51b815260206004820152601560248201527f64737420636861696e4964206e6f74206d6174636800000000000000000000006044820152606401610985565b8051602080830151604080850151606080870151608088015160a089015160c0808b015187519a861b6bffffffffffffffffffffffff199081168c8c015298861b891660348c01529590941b9096166048890152605c880191909152811b6001600160c01b0319908116607c88015293901b9092166084850152608c808501929092528051808503909201825260ac90930183528051908201206000818152600e9092529190205460ff1615611e735760405162461bcd60e51b815260206004820152600f60248201526e7472616e736665722065786973747360881b6044820152606401610985565b6000818152600e602052604090819020805460ff191660011790558201516060830151611ea09190612d5e565b60115460408301516001600160a01b03908116640100000000909204161415611fdf576011546060830151604051632e1a7d4d60e01b815260048101919091526401000000009091046001600160a01b031690632e1a7d4d90602401600060405180830381600087803b158015611f1657600080fd5b505af1158015611f2a573d6000803e3d6000fd5b50505050600082602001516001600160a01b0316836060015160405160006040518083038185875af1925050503d8060008114611f83576040519150601f19603f3d011682016040523d82523d6000602084013e611f88565b606091505b5050905080611fd95760405162461bcd60e51b815260206004820152601c60248201527f6661696c656420746f2072656c6179206e617469766520746f6b656e000000006044820152606401610985565b50612009565b6120098260200151836060015184604001516001600160a01b0316612e769092919063ffffffff16565b7f79fa08de5149d912dce8e5e8da7a7c17ccdf23dd5d3bfe196802e6eb86347c7c81836000015184602001518560400151866060015187608001518860c0015160405161182797969594939291909687526001600160a01b0395861660208801529385166040870152919093166060850152608084019290925267ffffffffffffffff9190911660a083015260c082015260e00190565b610c3f336122b7565b6000546001600160a01b031633146120f15760405162461bcd60e51b81526020600482018190526024820152600080516020613f6a8339815191526044820152606401610985565b600354811161214e5760405162461bcd60e51b815260206004820152602360248201527f6e6f7469636520706572696f642063616e206f6e6c7920626520696e637265616044820152621cd95960ea1b6064820152608401610985565b600355565b6000546001600160a01b0316331461219b5760405162461bcd60e51b81526020600482018190526024820152600080516020613f6a8339815191526044820152606401610985565b6001600160a01b0381166122175760405162461bcd60e51b815260206004820152602660248201527f4f776e61626c653a206e6577206f776e657220697320746865207a65726f206160448201527f64647265737300000000000000000000000000000000000000000000000000006064820152608401610985565b610c92816127f7565b60055460ff166122725760405162461bcd60e51b815260206004820152601460248201527f5061757361626c653a206e6f74207061757365640000000000000000000000006044820152606401610985565b6005805460ff191690557f5db9ee0a495bf2e6ff9c91a7834c1ba4fdd244a5e8aa4e537bd38aeae4b073aa335b6040516001600160a01b039091168152602001610bce565b6001600160a01b0381166000908152600d602052604090205460ff1661231f5760405162461bcd60e51b815260206004820152601760248201527f4163636f756e74206973206e6f7420676f7665726e6f720000000000000000006044820152606401610985565b6001600160a01b0381166000818152600d6020908152604091829020805460ff1916905590519182527f1ebe834e73d60a5fec822c1e1727d34bc79f2ad977ed504581cc1822fe20fb5b9101610eb5565b6040516001600160a01b0380851660248301528316604482015260648101829052611c569085906323b872dd60e01b906084015b60408051601f198184030181529190526020810180517bffffffffffffffffffffffffffffffffffffffffffffffffffffffff167fffffffff0000000000000000000000000000000000000000000000000000000090931692909217909152613023565b8281146124635760405162461bcd60e51b815260206004820152602360248201527f7369676e65727320616e6420706f77657273206c656e677468206e6f74206d616044820152620e8c6d60eb1b6064820152608401610985565b6000805b848110156124a75783838281811061248157612481613ca6565b90506020020135826124939190613ced565b91508061249f81613cd2565b915050612467565b50600060036124b7836002613d95565b6124c19190613db4565b6124cc906001613ced565b905060008080805b8a8110156126ec5760006125578d8d848181106124f3576124f3613ca6565b90506020028101906125059190613dd6565b8080601f016020809104026020016040519081016040528093929190818152602001838380828437600081840152601f19601f820116905080830192505050505050508f61310890919063ffffffff16565b9050836001600160a01b0316816001600160a01b0316116125ba5760405162461bcd60e51b815260206004820152601e60248201527f7369676e657273206e6f7420696e20617363656e64696e67206f7264657200006044820152606401610985565b8093505b8a8a848181106125d0576125d0613ca6565b90506020020160208101906125e5919061389f565b6001600160a01b0316816001600160a01b0316111561265f57612609600184613ced565b925089831061265a5760405162461bcd60e51b815260206004820152601060248201527f7369676e6572206e6f7420666f756e64000000000000000000000000000000006044820152606401610985565b6125be565b8a8a8481811061267157612671613ca6565b9050602002016020810190612686919061389f565b6001600160a01b0316816001600160a01b031614156126c6578888848181106126b1576126b1613ca6565b90506020020135856126c39190613ced565b94505b8585106126d95750505050505050612735565b50806126e481613cd2565b9150506124d4565b5060405162461bcd60e51b815260206004820152601260248201527f71756f72756d206e6f74207265616368656400000000000000000000000000006044820152606401610985565b50505050505050565b6001600160a01b03811660009081526006602052604090205460ff166127a65760405162461bcd60e51b815260206004820152601560248201527f4163636f756e74206973206e6f742070617573657200000000000000000000006044820152606401610985565b6001600160a01b038116600081815260066020908152604091829020805460ff1916905590519182527fcd265ebaf09df2871cc7bd4133404a235ba12eff2041bb89d9c714a2621c7c7e9101610eb5565b600080546001600160a01b038381167fffffffffffffffffffffffff0000000000000000000000000000000000000000831681178455604051919092169283917f8be0079c531659141344cd1fd0a4f28419497f9722a3daafe3b4186f6b6457e09190a35050565b8281146128ba5760405162461bcd60e51b815260206004820152602360248201527f7369676e65727320616e6420706f77657273206c656e677468206e6f74206d616044820152620e8c6d60eb1b6064820152608401610985565b6000805b8481101561299357816001600160a01b03168686838181106128e2576128e2613ca6565b90506020020160208101906128f7919061389f565b6001600160a01b0316116129585760405162461bcd60e51b815260206004820152602260248201527f4e6577207369676e657273206e6f7420696e20617363656e64696e67206f726460448201526132b960f11b6064820152608401610985565b85858281811061296a5761296a613ca6565b905060200201602081019061297f919061389f565b91508061298b81613cd2565b9150506128be565b50848484846040516020016129ab9493929190613d31565b60408051601f198184030181529082905280516020909101206001557ff126123539a68393c55697f617e7d1148e371988daed246c2f41da99965a23f8906129fa908790879087908790613e1d565b60405180910390a15050505050565b6001600160a01b03811660009081526006602052604090205460ff1615612a725760405162461bcd60e51b815260206004820152601960248201527f4163636f756e7420697320616c726561647920706175736572000000000000006044820152606401610985565b6001600160a01b038116600081815260066020908152604091829020805460ff1916600117905590519182527f6719d08c1888103bea251a4ed56406bd0c3e69723c8a1686e017e7bbe159b6f89101610eb5565b60055460ff1615612b0c5760405162461bcd60e51b815260206004820152601060248201526f14185d5cd8589b194e881c185d5cd95960821b6044820152606401610985565b6005805460ff191660011790557f62e78cea01bee320cd4e420270b5ea74000d11b0c9f74754ebdbfc544b05a25861229f3390565b6001600160a01b0381166000908152600d602052604090205460ff1615612baa5760405162461bcd60e51b815260206004820152601b60248201527f4163636f756e7420697320616c726561647920676f7665726e6f7200000000006044820152606401610985565b6001600160a01b0381166000818152600d6020908152604091829020805460ff1916600117905590519182527fdc5a48d79e2e147530ff63ecdbed5a5a66adb9d5cf339384d5d076da197c40b59101610eb5565b6040805160c08101825260008082526020808301829052828401829052606083018290526080830182905260a0830182905283518085019094528184528301849052909190805b60208301515183511015612d5657612c5c836131b2565b90925090508160011415612c8457612c73836131ec565b67ffffffffffffffff168452612c45565b8160021415612caa57612c96836131ec565b67ffffffffffffffff166020850152612c45565b8160031415612cd757612cc4612cbf8461326e565b61332b565b6001600160a01b03166040850152612c45565b8160041415612cff57612cec612cbf8461326e565b6001600160a01b03166060850152612c45565b8160051415612d2357612d19612d148461326e565b613336565b6080850152612c45565b8160061415612d4757612d3d612d388461326e565b61336d565b60a0850152612c45565b612d518382613385565b612c45565b505050919050565b600954612d69575050565b6001600160a01b0382166000908152600b602052604090205480612d8c57505050565b6001600160a01b0383166000908152600a602052604081205460095490914391612db68184613db4565b612dc09190613d95565b6001600160a01b0387166000908152600c6020526040902054909150811115612deb57849250612df8565b612df58584613ced565b92505b83831115612e485760405162461bcd60e51b815260206004820152601260248201527f766f6c756d6520657863656564732063617000000000000000000000000000006044820152606401610985565b506001600160a01b039094166000908152600a6020908152604080832093909355600c905220929092555050565b6040516001600160a01b038316602482015260448101829052612ea690849063a9059cbb60e01b906064016123a4565b505050565b6040805160e08101825260008082526020808301829052828401829052606083018290526080830182905260a0830182905260c0830182905283518085019094528184528301849052909190805b60208301515183511015612d5657612f10836131b2565b90925090508160011415612f3a57612f2a612cbf8461326e565b6001600160a01b03168452612ef9565b8160021415612f6257612f4f612cbf8461326e565b6001600160a01b03166020850152612ef9565b8160031415612f8a57612f77612cbf8461326e565b6001600160a01b03166040850152612ef9565b8160041415612fa957612f9f612d148461326e565b6060850152612ef9565b8160051415612fcf57612fbb836131ec565b67ffffffffffffffff166080850152612ef9565b8160061415612ff557612fe1836131ec565b67ffffffffffffffff1660a0850152612ef9565b81600714156130145761300a612d388461326e565b60c0850152612ef9565b61301e8382613385565b612ef9565b6000613078826040518060400160405280602081526020017f5361666545524332303a206c6f772d6c6576656c2063616c6c206661696c6564815250856001600160a01b03166133f79092919063ffffffff16565b805190915015612ea657808060200190518101906130969190613e9f565b612ea65760405162461bcd60e51b815260206004820152602a60248201527f5361666545524332303a204552433230206f7065726174696f6e20646964206e60448201527f6f742073756363656564000000000000000000000000000000000000000000006064820152608401610985565b600081516041141561313c5760208201516040830151606084015160001a61313286828585613410565b93505050506131ac565b815160401415613164576020820151604083015161315b8583836135b9565b925050506131ac565b60405162461bcd60e51b815260206004820152601f60248201527f45434453413a20696e76616c6964207369676e6174757265206c656e677468006044820152606401610985565b92915050565b60008060006131c0846131ec565b90506131cd600882613db4565b92508060071660058111156131e4576131e4613ec1565b915050915091565b602080820151825181019091015160009182805b600a8110156132685783811a9150613219816007613d95565b82607f16901b8517945081608016600014156132565761323a816001613ced565b86518790613249908390613ced565b9052509395945050505050565b8061326081613cd2565b915050613200565b50600080fd5b6060600061327b836131ec565b9050600081846000015161328f9190613ced565b90508360200151518111156132a357600080fd5b8167ffffffffffffffff8111156132bc576132bc6138fd565b6040519080825280601f01601f1916602001820160405280156132e6576020820181803683370190505b50602080860151865192955091818601919083010160005b85811015613320578181015183820152613319602082613ced565b90506132fe565b505050935250919050565b60006131ac826135fc565b600060208251111561334757600080fd5b602082015190508151602061335c9190613ed7565b613367906008613d95565b1c919050565b6000815160201461337d57600080fd5b506020015190565b600081600581111561339957613399613ec1565b14156133a857612ea6826131ec565b60028160058111156133bc576133bc613ec1565b14156102f25760006133cd836131ec565b905080836000018181516133e19190613ced565b90525060208301515183511115612ea657600080fd5b60606134068484600085613624565b90505b9392505050565b60007f7fffffffffffffffffffffffffffffff5d576e7357a4501ddfe92f46681b20a082111561348d5760405162461bcd60e51b815260206004820152602260248201527f45434453413a20696e76616c6964207369676e6174757265202773272076616c604482015261756560f01b6064820152608401610985565b8360ff16601b14806134a257508360ff16601c145b6134f95760405162461bcd60e51b815260206004820152602260248201527f45434453413a20696e76616c6964207369676e6174757265202776272076616c604482015261756560f01b6064820152608401610985565b6040805160008082526020820180845288905260ff871692820192909252606081018590526080810184905260019060a0016020604051602081039080840390855afa15801561354d573d6000803e3d6000fd5b5050604051601f1901519150506001600160a01b0381166135b05760405162461bcd60e51b815260206004820152601860248201527f45434453413a20696e76616c6964207369676e617475726500000000000000006044820152606401610985565b95945050505050565b60007f7fffffffffffffffffffffffffffffffffffffffffffffffffffffffffffffff821660ff83901c601b016135f286828785613410565b9695505050505050565b6000815160141461360c57600080fd5b50602001516c01000000000000000000000000900490565b60608247101561369c5760405162461bcd60e51b815260206004820152602660248201527f416464726573733a20696e73756666696369656e742062616c616e636520666f60448201527f722063616c6c00000000000000000000000000000000000000000000000000006064820152608401610985565b843b6136ea5760405162461bcd60e51b815260206004820152601d60248201527f416464726573733a2063616c6c20746f206e6f6e2d636f6e74726163740000006044820152606401610985565b600080866001600160a01b031685876040516137069190613f1a565b60006040518083038185875af1925050503d8060008114613743576040519150601f19603f3d011682016040523d82523d6000602084013e613748565b606091505b5091509150613758828286613763565b979650505050505050565b60608315613772575081613409565b8251156137825782518084602001fd5b8160405162461bcd60e51b81526004016109859190613f36565b60008083601f8401126137ae57600080fd5b50813567ffffffffffffffff8111156137c657600080fd5b6020830191508360208260051b85010111156137e157600080fd5b9250929050565b600080600080604085870312156137fe57600080fd5b843567ffffffffffffffff8082111561381657600080fd5b6138228883890161379c565b9096509450602087013591508082111561383b57600080fd5b506138488782880161379c565b95989497509550505050565b803563ffffffff8116811461386857600080fd5b919050565b60006020828403121561387f57600080fd5b61340982613854565b80356001600160a01b038116811461386857600080fd5b6000602082840312156138b157600080fd5b61340982613888565b6000602082840312156138cc57600080fd5b5035919050565b600080604083850312156138e657600080fd5b6138ef83613888565b946020939093013593505050565b634e487b7160e01b600052604160045260246000fd5b60008060008060008060006080888a03121561392e57600080fd5b873567ffffffffffffffff8082111561394657600080fd5b818a0191508a601f83011261395a57600080fd5b81358181111561396c5761396c6138fd565b604051601f8201601f19908116603f01168101908382118183101715613994576139946138fd565b816040528281528d60208487010111156139ad57600080fd5b82602086016020830137600094508460208483010152809b5050505060208a0135818111156139da578283fd5b6139e68c828d0161379c565b90995097505060408a0135818111156139fd578283fd5b613a098c828d0161379c565b90975095505060608a013581811115613a20578283fd5b613a2c8c828d0161379c565b9a9d999c50979a509598949794955050505050565b60008060008060008060008060008060a08b8d031215613a6057600080fd5b8a3567ffffffffffffffff80821115613a7857600080fd5b613a848e838f0161379c565b909c509a5060208d0135915080821115613a9d57600080fd5b613aa98e838f0161379c565b909a50985060408d0135915080821115613ac257600080fd5b613ace8e838f0161379c565b909850965060608d0135915080821115613ae757600080fd5b613af38e838f0161379c565b909650945060808d0135915080821115613b0c57600080fd5b50613b198d828e0161379c565b915080935050809150509295989b9194979a5092959850565b6000806000806000806000806080898b031215613b4e57600080fd5b883567ffffffffffffffff80821115613b6657600080fd5b818b0191508b601f830112613b7a57600080fd5b813581811115613b8957600080fd5b8c6020828501011115613b9b57600080fd5b60209283019a509850908a01359080821115613bb657600080fd5b613bc28c838d0161379c565b909850965060408b0135915080821115613bdb57600080fd5b613be78c838d0161379c565b909650945060608b0135915080821115613c0057600080fd5b50613c0d8b828c0161379c565b999c989b5096995094979396929594505050565b803567ffffffffffffffff8116811461386857600080fd5b60008060008060008060c08789031215613c5257600080fd5b613c5b87613888565b9550613c6960208801613888565b945060408701359350613c7e60608801613c21565b9250613c8c60808801613c21565b9150613c9a60a08801613854565b90509295509295509295565b634e487b7160e01b600052603260045260246000fd5b634e487b7160e01b600052601160045260246000fd5b6000600019821415613ce657613ce6613cbc565b5060010190565b60008219821115613d0057613d00613cbc565b500190565b600067ffffffffffffffff808316818516808303821115613d2857613d28613cbc565b01949350505050565b60008186825b87811015613d66576001600160a01b03613d5083613888565b1683526020928301929190910190600101613d37565b50506001600160fb1b03841115613d7c57600080fd5b8360051b80868337600091019081529695505050505050565b6000816000190483118215151615613daf57613daf613cbc565b500290565b600082613dd157634e487b7160e01b600052601260045260246000fd5b500490565b6000808335601e19843603018112613ded57600080fd5b83018035915067ffffffffffffffff821115613e0857600080fd5b6020019150368190038213156137e157600080fd5b6040808252810184905260008560608301825b87811015613e5e576001600160a01b03613e4984613888565b16825260209283019290910190600101613e30565b5083810360208501528481526001600160fb1b03851115613e7e57600080fd5b8460051b915081866020830137600091016020019081529695505050505050565b600060208284031215613eb157600080fd5b8151801515811461340957600080fd5b634e487b7160e01b600052602160045260246000fd5b600082821015613ee957613ee9613cbc565b500390565b60005b83811015613f09578181015183820152602001613ef1565b83811115611c565750506000910152565b60008251613f2c818460208701613eee565b9190910192915050565b6020815260008251806020840152613f55816040850160208701613eee565b601f01601f1916919091016040019291505056fe4f776e61626c653a2063616c6c6572206973206e6f7420746865206f776e6572a2646970667358221220ac691e753c87022c6be4d1bd52713e954122a8c67bff5449e462b1cf1995d87664736f6c63430008090033",
  "linkReferences": {},
  "deployedLinkReferences": {}
}