{
  "_format": "hh-sol-artifact-1",
  "contractName": "MessageSender",
  "sourceName": "contracts/message/messagebus/MessageSender.sol",
  "abi": [
    {
      "inputs": [
        {
          "internalType": "contract ISigsVerifier",
          "name": "_sigsVerifier",
          "type": "address"
        }
      ],
      "stateMutability": "nonpayable",
      "type": "constructor"
    },
    {
      "anonymous": false,
      "inputs": [
        {
          "indexed": true,
          "internalType": "address",
          "name": "sender",
          "type": "address"
        },
        {
          "indexed": false,
          "internalType": "address",
          "name": "receiver",
          "type": "address"
        },
        {
          "indexed": false,
          "internalType": "uint256",
          "name": "dstChainId",
          "type": "uint256"
        },
        {
          "indexed": false,
          "internalType": "bytes",
          "name": "message",
          "type": "bytes"
        }
      ],
      "name": "Message",
      "type": "event"
    },
    {
      "anonymous": false,
      "inputs": [
        {
          "indexed": true,
          "internalType": "address",
          "name": "sender",
          "type": "address"
        },
        {
          "indexed": false,
          "internalType": "address",
          "name": "receiver",
          "type": "address"
        },
        {
          "indexed": false,
          "internalType": "uint256",
          "name": "dstChainId",
          "type": "uint256"
        },
        {
          "indexed": false,
          "internalType": "address",
          "name": "bridge",
          "type": "address"
        },
        {
          "indexed": false,
          "internalType": "bytes32",
          "name": "srcTransferId",
          "type": "bytes32"
        },
        {
          "indexed": false,
          "internalType": "bytes",
          "name": "message",
          "type": "bytes"
        }
      ],
      "name": "MessageWithTransfer",
      "type": "event"
    },
    {
      "anonymous": false,
      "inputs": [
        {
          "indexed": true,
          "internalType": "address",
          "name": "previousOwner",
          "type": "address"
        },
        {
          "indexed": true,
          "internalType": "address",
          "name": "newOwner",
          "type": "address"
        }
      ],
      "name": "OwnershipTransferred",
      "type": "event"
    },
    {
      "inputs": [],
      "name": "feeBase",
      "outputs": [
        {
          "internalType": "uint256",
          "name": "",
          "type": "uint256"
        }
      ],
      "stateMutability": "view",
      "type": "function"
    },
    {
      "inputs": [],
      "name": "feePerByte",
      "outputs": [
        {
          "internalType": "uint256",
          "name": "",
          "type": "uint256"
        }
      ],
      "stateMutability": "view",
      "type": "function"
    },
    {
      "inputs": [],
      "name": "owner",
      "outputs": [
        {
          "internalType": "address",
          "name": "",
          "type": "address"
        }
      ],
      "stateMutability": "view",
      "type": "function"
    },
    {
      "inputs": [],
      "name": "renounceOwnership",
      "outputs": [],
      "stateMutability": "nonpayable",
      "type": "function"
    },
    {
      "inputs": [
        {
          "internalType": "address",
          "name": "_receiver",
          "type": "address"
        },
        {
          "internalType": "uint256",
          "name": "_dstChainId",
          "type": "uint256"
        },
        {
          "internalType": "bytes",
          "name": "_message",
          "type": "bytes"
        }
      ],
      "name": "sendMessage",
      "outputs": [],
      "stateMutability": "payable",
      "type": "function"
    },
    {
      "inputs": [
        {
          "internalType": "address",
          "name": "_receiver",
          "type": "address"
        },
        {
          "internalType": "uint256",
          "name": "_dstChainId",
          "type": "uint256"
        },
        {
          "internalType": "address",
          "name": "_bridge",
          "type": "address"
        },
        {
          "internalType": "bytes32",
          "name": "_srcTransferId",
          "type": "bytes32"
        },
        {
          "internalType": "bytes",
          "name": "_message",
          "type": "bytes"
        }
      ],
      "name": "sendMessageWithTransfer",
      "outputs": [],
      "stateMutability": "payable",
      "type": "function"
    },
    {
      "inputs": [
        {
          "internalType": "uint256",
          "name": "_fee",
          "type": "uint256"
        }
      ],
      "name": "setFeeBase",
      "outputs": [],
      "stateMutability": "nonpayable",
      "type": "function"
    },
    {
      "inputs": [
        {
          "internalType": "uint256",
          "name": "_fee",
          "type": "uint256"
        }
      ],
      "name": "setFeePerByte",
      "outputs": [],
      "stateMutability": "nonpayable",
      "type": "function"
    },
    {
      "inputs": [],
      "name": "sigsVerifier",
      "outputs": [
        {
          "internalType": "contract ISigsVerifier",
          "name": "",
          "type": "address"
        }
      ],
      "stateMutability": "view",
      "type": "function"
    },
    {
      "inputs": [
        {
          "internalType": "address",
          "name": "newOwner",
          "type": "address"
        }
      ],
      "name": "transferOwnership",
      "outputs": [],
      "stateMutability": "nonpayable",
      "type": "function"
    },
    {
      "inputs": [
        {
          "internalType": "address",
          "name": "_account",
          "type": "address"
        },
        {
          "internalType": "uint256",
          "name": "_cumulativeFee",
          "type": "uint256"
        },
        {
          "internalType": "bytes[]",
          "name": "_sigs",
          "type": "bytes[]"
        },
        {
          "internalType": "address[]",
          "name": "_signers",
          "type": "address[]"
        },
        {
          "internalType": "uint256[]",
          "name": "_powers",
          "type": "uint256[]"
        }
      ],
      "name": "withdrawFee",
      "outputs": [],
      "stateMutability": "nonpayable",
      "type": "function"
    },
    {
      "inputs": [
        {
          "internalType": "address",
          "name": "",
          "type": "address"
        }
      ],
      "name": "withdrawnFees",
      "outputs": [
        {
          "internalType": "uint256",
          "name": "",
          "type": "uint256"
        }
      ],
      "stateMutability": "view",
      "type": "function"
    }
  ],
  "bytecode": "0x60a060405234801561001057600080fd5b50604051610ed0380380610ed083398101604081905261002f91610099565b61003833610049565b6001600160a01b03166080526100c9565b600080546001600160a01b038381166001600160a01b0319831681178455604051919092169283917f8be0079c531659141344cd1fd0a4f28419497f9722a3daafe3b4186f6b6457e09190a35050565b6000602082840312156100ab57600080fd5b81516001600160a01b03811681146100c257600080fd5b9392505050565b608051610de56100eb600039600081816101e301526103740152610de56000f3fe6080604052600436106100c75760003560e01c806395e911a811610074578063e2c1ed251161004e578063e2c1ed2514610205578063f2fde38b14610225578063f60bbe2a1461024557600080fd5b806395e911a8146101a85780639f3ce55a146101be578063ccf2683b146101d157600080fd5b80635b3e5f50116100a55780635b3e5f5014610121578063715018a6146101615780638da5cb5b1461017657600080fd5b806306c28bd6146100cc5780632ff4c411146100ee5780634289fbb31461010e575b600080fd5b3480156100d857600080fd5b506100ec6100e736600461087c565b61025b565b005b3480156100fa57600080fd5b506100ec6101093660046108fd565b6102bf565b6100ec61011c3660046109f3565b610515565b34801561012d57600080fd5b5061014e61013c366004610a6b565b60036020526000908152604090205481565b6040519081526020015b60405180910390f35b34801561016d57600080fd5b506100ec6105c4565b34801561018257600080fd5b506000546001600160a01b03165b6040516001600160a01b039091168152602001610158565b3480156101b457600080fd5b5061014e60015481565b6100ec6101cc366004610a8d565b61062a565b3480156101dd57600080fd5b506101907f000000000000000000000000000000000000000000000000000000000000000081565b34801561021157600080fd5b506100ec61022036600461087c565b6106d3565b34801561023157600080fd5b506100ec610240366004610a6b565b610732565b34801561025157600080fd5b5061014e60025481565b6000546001600160a01b031633146102ba5760405162461bcd60e51b815260206004820181905260248201527f4f776e61626c653a2063616c6c6572206973206e6f7420746865206f776e657260448201526064015b60405180910390fd5b600155565b6000463060405160200161031592919091825260601b6bffffffffffffffffffffffff191660208201527f77697468647261774665650000000000000000000000000000000000000000006034820152603f0190565b60408051808303601f19018152828252805160209182012090830181905260608c901b6bffffffffffffffffffffffff19168383015260548084018c9052825180850390910181526074840192839052633416de1160e11b90925292507f00000000000000000000000000000000000000000000000000000000000000006001600160a01b03169163682dbc22916103bb918b908b908b908b908b908b90607801610c37565b60006040518083038186803b1580156103d357600080fd5b505afa1580156103e7573d6000803e3d6000fd5b505050506001600160a01b03891660009081526003602052604081205461040e908a610ce9565b9050600081116104605760405162461bcd60e51b815260206004820152601960248201527f4e6f206e657720616d6f756e7420746f2077697468647261770000000000000060448201526064016102b1565b60008a6001600160a01b03168261c35090604051600060405180830381858888f193505050503d80600081146104b2576040519150601f19603f3d011682016040523d82523d6000602084013e6104b7565b606091505b50509050806105085760405162461bcd60e51b815260206004820152601660248201527f6661696c656420746f207769746864726177206665650000000000000000000060448201526064016102b1565b5050505050505050505050565b6002546105229082610d00565b60015461052f9190610d1f565b3410156105715760405162461bcd60e51b815260206004820152601060248201526f496e73756666696369656e742066656560801b60448201526064016102b1565b336001600160a01b03167fd3a99ca6c57c96f2129445eb07508eb2930b9eb112fc12656115ba87ab8598288787878787876040516105b496959493929190610d37565b60405180910390a2505050505050565b6000546001600160a01b0316331461061e5760405162461bcd60e51b815260206004820181905260248201527f4f776e61626c653a2063616c6c6572206973206e6f7420746865206f776e657260448201526064016102b1565b6106286000610814565b565b6002546106379082610d00565b6001546106449190610d1f565b3410156106865760405162461bcd60e51b815260206004820152601060248201526f496e73756666696369656e742066656560801b60448201526064016102b1565b336001600160a01b03167f73837570099154c2d8761dc02aaeaac3339739a8ce3bfb47898eaaf8044306a9858585856040516106c59493929190610d7c565b60405180910390a250505050565b6000546001600160a01b0316331461072d5760405162461bcd60e51b815260206004820181905260248201527f4f776e61626c653a2063616c6c6572206973206e6f7420746865206f776e657260448201526064016102b1565b600255565b6000546001600160a01b0316331461078c5760405162461bcd60e51b815260206004820181905260248201527f4f776e61626c653a2063616c6c6572206973206e6f7420746865206f776e657260448201526064016102b1565b6001600160a01b0381166108085760405162461bcd60e51b815260206004820152602660248201527f4f776e61626c653a206e6577206f776e657220697320746865207a65726f206160448201527f646472657373000000000000000000000000000000000000000000000000000060648201526084016102b1565b61081181610814565b50565b600080546001600160a01b038381167fffffffffffffffffffffffff0000000000000000000000000000000000000000831681178455604051919092169283917f8be0079c531659141344cd1fd0a4f28419497f9722a3daafe3b4186f6b6457e09190a35050565b60006020828403121561088e57600080fd5b5035919050565b80356001600160a01b03811681146108ac57600080fd5b919050565b60008083601f8401126108c357600080fd5b50813567ffffffffffffffff8111156108db57600080fd5b6020830191508360208260051b85010111156108f657600080fd5b9250929050565b60008060008060008060008060a0898b03121561091957600080fd5b61092289610895565b975060208901359650604089013567ffffffffffffffff8082111561094657600080fd5b6109528c838d016108b1565b909850965060608b013591508082111561096b57600080fd5b6109778c838d016108b1565b909650945060808b013591508082111561099057600080fd5b5061099d8b828c016108b1565b999c989b5096995094979396929594505050565b60008083601f8401126109c357600080fd5b50813567ffffffffffffffff8111156109db57600080fd5b6020830191508360208285010111156108f657600080fd5b60008060008060008060a08789031215610a0c57600080fd5b610a1587610895565b955060208701359450610a2a60408801610895565b935060608701359250608087013567ffffffffffffffff811115610a4d57600080fd5b610a5989828a016109b1565b979a9699509497509295939492505050565b600060208284031215610a7d57600080fd5b610a8682610895565b9392505050565b60008060008060608587031215610aa357600080fd5b610aac85610895565b935060208501359250604085013567ffffffffffffffff811115610acf57600080fd5b610adb878288016109b1565b95989497509550505050565b81835281816020850137506000828201602090810191909152601f909101601f19169091010190565b81835260006020808501808196508560051b810191508460005b87811015610b945782840389528135601e19883603018112610b4b57600080fd5b8701803567ffffffffffffffff811115610b6457600080fd5b803603891315610b7357600080fd5b610b808682898501610ae7565b9a87019a9550505090840190600101610b2a565b5091979650505050505050565b8183526000602080850194508260005b85811015610bdd576001600160a01b03610bca83610895565b1687529582019590820190600101610bb1565b509495945050505050565b81835260007f07ffffffffffffffffffffffffffffffffffffffffffffffffffffffffffffff831115610c1a57600080fd5b8260051b8083602087013760009401602001938452509192915050565b608081526000885180608084015260005b81811015610c65576020818c0181015160a0868401015201610c48565b81811115610c7757600060a083860101525b50601f01601f1916820182810360a09081016020850152610c9b908201898b610b10565b90508281036040840152610cb0818789610ba1565b90508281036060840152610cc5818587610be8565b9a9950505050505050505050565b634e487b7160e01b600052601160045260246000fd5b600082821015610cfb57610cfb610cd3565b500390565b6000816000190483118215151615610d1a57610d1a610cd3565b500290565b60008219821115610d3257610d32610cd3565b500190565b60006001600160a01b03808916835287602084015280871660408401525084606083015260a06080830152610d7060a083018486610ae7565b98975050505050505050565b6001600160a01b0385168152836020820152606060408201526000610da5606083018486610ae7565b969550505050505056fea26469706673582212200137d5f5188e14d9d2f836082b16de0fba7bb893a5e9912fabde2fae0898acec64736f6c63430008090033",
  "linkReferences": {},
  "deployedLinkReferences": {}
}